{
  "contractName": "BrandMarket",
  "abi": [
    {
      "anonymous": false,
      "inputs": [
        {
          "indexed": true,
          "internalType": "bytes32",
          "name": "memoHash",
          "type": "bytes32"
        },
        {
          "indexed": true,
          "internalType": "address",
          "name": "payer",
          "type": "address"
        },
        {
          "indexed": false,
          "internalType": "bytes",
          "name": "memo",
          "type": "bytes"
        },
        {
          "indexed": false,
          "internalType": "uint256",
          "name": "payRate",
          "type": "uint256"
        },
        {
          "indexed": false,
          "internalType": "uint256",
          "name": "balance",
          "type": "uint256"
        },
        {
          "indexed": false,
          "internalType": "uint256",
          "name": "expiration",
          "type": "uint256"
        }
      ],
      "name": "Active",
      "type": "event"
    },
    {
      "anonymous": false,
      "inputs": [
        {
          "indexed": true,
          "internalType": "address",
          "name": "owner",
          "type": "address"
        },
        {
          "indexed": true,
          "internalType": "address",
          "name": "spender",
          "type": "address"
        },
        {
          "indexed": false,
          "internalType": "uint256",
          "name": "value",
          "type": "uint256"
        }
      ],
      "name": "Approval",
      "type": "event"
    },
    {
      "anonymous": false,
      "inputs": [
        {
          "indexed": true,
          "internalType": "bytes32",
          "name": "memoHash",
          "type": "bytes32"
        },
        {
          "indexed": true,
          "internalType": "address",
          "name": "payer",
          "type": "address"
        },
        {
          "indexed": true,
          "internalType": "address",
          "name": "miner",
          "type": "address"
        },
        {
          "indexed": false,
          "internalType": "uint256",
          "name": "value",
          "type": "uint256"
        }
      ],
      "name": "Claim",
      "type": "event"
    },
    {
      "anonymous": false,
      "inputs": [
        {
          "indexed": true,
          "internalType": "address",
          "name": "payer",
          "type": "address"
        },
        {
          "indexed": true,
          "internalType": "address",
          "name": "miner",
          "type": "address"
        },
        {
          "indexed": false,
          "internalType": "uint256",
          "name": "value",
          "type": "uint256"
        }
      ],
      "name": "CommissionLost",
      "type": "event"
    },
    {
      "anonymous": false,
      "inputs": [
        {
          "indexed": true,
          "internalType": "address",
          "name": "payer",
          "type": "address"
        },
        {
          "indexed": true,
          "internalType": "address",
          "name": "miner",
          "type": "address"
        },
        {
          "indexed": true,
          "internalType": "address",
          "name": "payee",
          "type": "address"
        },
        {
          "indexed": false,
          "internalType": "uint256",
          "name": "value",
          "type": "uint256"
        }
      ],
      "name": "CommissionPaid",
      "type": "event"
    },
    {
      "anonymous": false,
      "inputs": [
        {
          "indexed": true,
          "internalType": "address",
          "name": "payer",
          "type": "address"
        },
        {
          "indexed": true,
          "internalType": "address",
          "name": "miner",
          "type": "address"
        },
        {
          "indexed": false,
          "internalType": "uint256",
          "name": "value",
          "type": "uint256"
        }
      ],
      "name": "CommissionRoot",
      "type": "event"
    },
    {
      "anonymous": false,
      "inputs": [
        {
          "indexed": true,
          "internalType": "address",
          "name": "payer",
          "type": "address"
        },
        {
          "indexed": true,
          "internalType": "address",
          "name": "miner",
          "type": "address"
        },
        {
          "indexed": false,
          "internalType": "uint256",
          "name": "value",
          "type": "uint256"
        }
      ],
      "name": "CommissionSkip",
      "type": "event"
    },
    {
      "anonymous": false,
      "inputs": [
        {
          "indexed": true,
          "internalType": "bytes32",
          "name": "memoHash",
          "type": "bytes32"
        },
        {
          "indexed": true,
          "internalType": "address",
          "name": "payer",
          "type": "address"
        }
      ],
      "name": "Deactive",
      "type": "event"
    },
    {
      "anonymous": false,
      "inputs": [
        {
          "indexed": true,
          "internalType": "bytes32",
          "name": "key",
          "type": "bytes32"
        },
        {
          "indexed": false,
          "internalType": "uint256",
          "name": "value",
          "type": "uint256"
        }
      ],
      "name": "GlobalConfig",
      "type": "event"
    },
    {
      "anonymous": false,
      "inputs": [
        {
          "indexed": true,
          "internalType": "bytes32",
          "name": "key",
          "type": "bytes32"
        },
        {
          "indexed": false,
          "internalType": "address",
          "name": "value",
          "type": "address"
        }
      ],
      "name": "GlobalConfig",
      "type": "event"
    },
    {
      "anonymous": false,
      "inputs": [
        {
          "indexed": false,
          "internalType": "bytes32",
          "name": "blockHash",
          "type": "bytes32"
        },
        {
          "indexed": true,
          "internalType": "bytes32",
          "name": "memoHash",
          "type": "bytes32"
        },
        {
          "indexed": true,
          "internalType": "address",
          "name": "payer",
          "type": "address"
        },
        {
          "indexed": true,
          "internalType": "bytes32",
          "name": "pubkey",
          "type": "bytes32"
        },
        {
          "indexed": false,
          "internalType": "uint256",
          "name": "amount",
          "type": "uint256"
        },
        {
          "indexed": false,
          "internalType": "uint256",
          "name": "timestamp",
          "type": "uint256"
        }
      ],
      "name": "Submit",
      "type": "event"
    },
    {
      "anonymous": false,
      "inputs": [
        {
          "indexed": true,
          "internalType": "address",
          "name": "from",
          "type": "address"
        },
        {
          "indexed": true,
          "internalType": "address",
          "name": "to",
          "type": "address"
        },
        {
          "indexed": false,
          "internalType": "uint256",
          "name": "value",
          "type": "uint256"
        }
      ],
      "name": "Transfer",
      "type": "event"
    },
    {
      "inputs": [
        {
          "internalType": "address",
          "name": "owner",
          "type": "address"
        },
        {
          "internalType": "address",
          "name": "spender",
          "type": "address"
        }
      ],
      "name": "allowance",
      "outputs": [
        {
          "internalType": "uint256",
          "name": "",
          "type": "uint256"
        }
      ],
      "stateMutability": "view",
      "type": "function"
    },
    {
      "inputs": [
        {
          "internalType": "address",
          "name": "spender",
          "type": "address"
        },
        {
          "internalType": "uint256",
          "name": "amount",
          "type": "uint256"
        }
      ],
      "name": "approve",
      "outputs": [
        {
          "internalType": "bool",
          "name": "",
          "type": "bool"
        }
      ],
      "stateMutability": "nonpayable",
      "type": "function"
    },
    {
      "inputs": [
        {
          "internalType": "address",
          "name": "account",
          "type": "address"
        }
      ],
      "name": "balanceOf",
      "outputs": [
        {
          "internalType": "uint256",
          "name": "",
          "type": "uint256"
        }
      ],
      "stateMutability": "view",
      "type": "function"
    },
    {
      "inputs": [],
      "name": "decimals",
      "outputs": [
        {
          "internalType": "uint8",
          "name": "",
          "type": "uint8"
        }
      ],
      "stateMutability": "pure",
      "type": "function"
    },
    {
      "inputs": [
        {
          "internalType": "address",
          "name": "spender",
          "type": "address"
        },
        {
          "internalType": "uint256",
          "name": "subtractedValue",
          "type": "uint256"
        }
      ],
      "name": "decreaseAllowance",
      "outputs": [
        {
          "internalType": "bool",
          "name": "",
          "type": "bool"
        }
      ],
      "stateMutability": "nonpayable",
      "type": "function"
    },
    {
      "inputs": [
        {
          "internalType": "address",
          "name": "spender",
          "type": "address"
        },
        {
          "internalType": "uint256",
          "name": "addedValue",
          "type": "uint256"
        }
      ],
      "name": "increaseAllowance",
      "outputs": [
        {
          "internalType": "bool",
          "name": "",
          "type": "bool"
        }
      ],
      "stateMutability": "nonpayable",
      "type": "function"
    },
    {
      "inputs": [],
      "name": "name",
      "outputs": [
        {
          "internalType": "string",
          "name": "",
          "type": "string"
        }
      ],
      "stateMutability": "pure",
      "type": "function"
    },
    {
      "inputs": [],
      "name": "symbol",
      "outputs": [
        {
          "internalType": "string",
          "name": "",
          "type": "string"
        }
      ],
      "stateMutability": "pure",
      "type": "function"
    },
    {
      "inputs": [],
      "name": "totalSupply",
      "outputs": [
        {
          "internalType": "uint256",
          "name": "",
          "type": "uint256"
        }
      ],
      "stateMutability": "view",
      "type": "function"
    },
    {
      "inputs": [
        {
          "internalType": "address",
          "name": "recipient",
          "type": "address"
        },
        {
          "internalType": "uint256",
          "name": "amount",
          "type": "uint256"
        }
      ],
      "name": "transfer",
      "outputs": [
        {
          "internalType": "bool",
          "name": "",
          "type": "bool"
        }
      ],
      "stateMutability": "nonpayable",
      "type": "function"
    },
    {
      "inputs": [
        {
          "internalType": "address",
          "name": "sender",
          "type": "address"
        },
        {
          "internalType": "address",
          "name": "recipient",
          "type": "address"
        },
        {
          "internalType": "uint256",
          "name": "amount",
          "type": "uint256"
        }
      ],
      "name": "transferFrom",
      "outputs": [
        {
          "internalType": "bool",
          "name": "",
          "type": "bool"
        }
      ],
      "stateMutability": "nonpayable",
      "type": "function"
    },
    {
      "stateMutability": "payable",
      "type": "receive"
    },
    {
      "inputs": [],
      "name": "initialize",
      "outputs": [],
      "stateMutability": "nonpayable",
      "type": "function"
    },
    {
      "inputs": [
        {
          "internalType": "bytes",
          "name": "memo",
          "type": "bytes"
        },
        {
          "internalType": "uint256",
          "name": "fund",
          "type": "uint256"
        },
        {
          "internalType": "uint256",
          "name": "payRate",
          "type": "uint256"
        },
        {
          "internalType": "uint256",
          "name": "duration",
          "type": "uint256"
        }
      ],
      "name": "activate",
      "outputs": [],
      "stateMutability": "nonpayable",
      "type": "function"
    },
    {
      "inputs": [
        {
          "internalType": "bytes32",
          "name": "memoHash",
          "type": "bytes32"
        }
      ],
      "name": "deactivate",
      "outputs": [],
      "stateMutability": "nonpayable",
      "type": "function"
    },
    {
      "inputs": [
        {
          "internalType": "bytes32",
          "name": "memoHash",
          "type": "bytes32"
        },
        {
          "internalType": "address",
          "name": "payer",
          "type": "address"
        }
      ],
      "name": "queryCampaign",
      "outputs": [
        {
          "internalType": "uint256",
          "name": "balance",
          "type": "uint256"
        },
        {
          "internalType": "uint256",
          "name": "payRate",
          "type": "uint256"
        },
        {
          "internalType": "uint256",
          "name": "expiration",
          "type": "uint256"
        }
      ],
      "stateMutability": "view",
      "type": "function"
    }
  ],
  "bytecode": "0x6101406040526000608081905260a081905260c081905260e0819052631dcd65006101008190526103e86101205260018290556002919091556003805463ffffffff191690911763ffffffff166503e80000000017905534801561006257600080fd5b50611769806100726000396000f3fe6080604052600436106100ec5760003560e01c8063395093511161008a57806395d89b411161005957806395d89b4114610497578063a457c2d7146104ac578063a9059cbb146104f2578063dd62ed3e1461053857610158565b8063395093511461039857806356cb121d146103de57806370a08231146104425780638129fc1c1461048257610158565b806318160ddd116100c657806318160ddd146102cc57806322eee84c146102f357806323b872dd1461031d578063313ce5671461036d57610158565b806306fdde031461015d578063095ea7b3146101e75780630af77eb11461024157610158565b3661015857604080517f08c379a000000000000000000000000000000000000000000000000000000000815260206004820152600a60248201527f4e6f207468616e6b732100000000000000000000000000000000000000000000604482015290519081900360640190fd5b600080fd5b34801561016957600080fd5b50610172610580565b6040805160208082528351818301528351919283929083019185019080838360005b838110156101ac578181015183820152602001610194565b50505050905090810190601f1680156101d95780820380516001836020036101000a031916815260200191505b509250505060405180910390f35b3480156101f357600080fd5b5061022d6004803603604081101561020a57600080fd5b5073ffffffffffffffffffffffffffffffffffffffff81351690602001356105b7565b604080519115158252519081900360200190f35b34801561024d57600080fd5b506102ca6004803603608081101561026457600080fd5b81019060208101813564010000000081111561027f57600080fd5b82018360208201111561029157600080fd5b803590602001918460018302840111640100000000831117156102b357600080fd5b9193509150803590602081013590604001356105d5565b005b3480156102d857600080fd5b506102e1610c27565b60408051918252519081900360200190f35b3480156102ff57600080fd5b506102ca6004803603602081101561031657600080fd5b5035610c2d565b34801561032957600080fd5b5061022d6004803603606081101561034057600080fd5b5073ffffffffffffffffffffffffffffffffffffffff813581169160208101359091169060400135610d44565b34801561037957600080fd5b50610382610e2a565b6040805160ff9092168252519081900360200190f35b3480156103a457600080fd5b5061022d600480360360408110156103bb57600080fd5b5073ffffffffffffffffffffffffffffffffffffffff8135169060200135610e2f565b3480156103ea57600080fd5b506104246004803603604081101561040157600080fd5b508035906020013573ffffffffffffffffffffffffffffffffffffffff16610e90565b60408051938452602084019290925282820152519081900360600190f35b34801561044e57600080fd5b506102e16004803603602081101561046557600080fd5b503573ffffffffffffffffffffffffffffffffffffffff16610f10565b34801561048e57600080fd5b506102ca610f38565b3480156104a357600080fd5b5061017261103f565b3480156104b857600080fd5b5061022d600480360360408110156104cf57600080fd5b5073ffffffffffffffffffffffffffffffffffffffff8135169060200135611076565b3480156104fe57600080fd5b5061022d6004803603604081101561051557600080fd5b5073ffffffffffffffffffffffffffffffffffffffff81351690602001356110f1565b34801561054457600080fd5b506102e16004803603604081101561055b57600080fd5b5073ffffffffffffffffffffffffffffffffffffffff81358116916020013516611105565b60408051808201909152600781527f456e647572696f00000000000000000000000000000000000000000000000000602082015290565b60006105cb6105c461113d565b8484611141565b5060015b92915050565b60008585604051808383808284376040805191909301819003902060008181526004602090815284822033835290529290922060018101549296509450507801000000000000000000000000000000000000000000000000900467ffffffffffffffff169150610646905081611288565b156108d557600085116106ba57604080517f08c379a000000000000000000000000000000000000000000000000000000000815260206004820152600860248201527f2170617952617465000000000000000000000000000000000000000000000000604482015290519081900360640190fd5b7801000000000000000000000000000000000000000000000000851061074157604080517f08c379a000000000000000000000000000000000000000000000000000000000815260206004820152601060248201527f70617952617465206f766572666c6f7700000000000000000000000000000000604482015290519081900360640190fd5b6001820180547fffffffffffffffff0000000000000000000000000000000000000000000000001677ffffffffffffffffffffffffffffffffffffffffffffffff8716179055856107f357604080517f08c379a000000000000000000000000000000000000000000000000000000000815260206004820152600560248201527f2166756e64000000000000000000000000000000000000000000000000000000604482015290519081900360640190fd5b61080e600085116108075762127500610809565b845b61129b565b905068010000000000000000811061088757604080517f08c379a000000000000000000000000000000000000000000000000000000000815260206004820152601360248201527f65787069726174696f6e206f766572666c6f7700000000000000000000000000604482015290519081900360640190fd5b60018201805477ffffffffffffffffffffffffffffffffffffffffffffffff16780100000000000000000000000000000000000000000000000067ffffffffffffffff841602179055610b4b565b8415610a1f57600182015477ffffffffffffffffffffffffffffffffffffffffffffffff168511610951576040517f08c379a00000000000000000000000000000000000000000000000000000000081526004018080602001828103825260228152602001806116336022913960400191505060405180910390fd5b780100000000000000000000000000000000000000000000000085106109d857604080517f08c379a000000000000000000000000000000000000000000000000000000000815260206004820152601060248201527f70617952617465206f766572666c6f7700000000000000000000000000000000604482015290519081900360640190fd5b6001820180547fffffffffffffffff0000000000000000000000000000000000000000000000001677ffffffffffffffffffffffffffffffffffffffffffffffff87161790555b8315610b4b5780610a2f8561129b565b9150808211610a89576040517f08c379a000000000000000000000000000000000000000000000000000000000815260040180806020018281038252602381526020018061167b6023913960400191505060405180910390fd5b680100000000000000008210610b0057604080517f08c379a000000000000000000000000000000000000000000000000000000000815260206004820152601360248201527f65787069726174696f6e206f766572666c6f7700000000000000000000000000604482015290519081900360640190fd5b5060018201805477ffffffffffffffffffffffffffffffffffffffffffffffff16780100000000000000000000000000000000000000000000000067ffffffffffffffff8416021790555b81548615610b6e57610b5e3330896112ae565b610b688188611481565b80845590505b3373ffffffffffffffffffffffffffffffffffffffff16847fb2a5d383d8946e582b2e9111578931f30743b9697024fc07915c9d15f005875e8b8b8a868860405180806020018581526020018481526020018381526020018281038252878782818152602001925080828437600083820152604051601f9091017fffffffffffffffffffffffffffffffffffffffffffffffffffffffffffffffe0169092018290039850909650505050505050a3505050505050505050565b60095490565b600081815260046020908152604080832033845290915290206001810154610c7a907801000000000000000000000000000000000000000000000000900467ffffffffffffffff16611288565b610ce557604080517f08c379a000000000000000000000000000000000000000000000000000000000815260206004820152600860248201527f2165787069726564000000000000000000000000000000000000000000000000604482015290519081900360640190fd5b610cf4303383600001546112ae565b600082815260046020908152604080832033808552925280832083815560010183905551909184917f6373af0b20b8b6317fe443404fc44c22aa42d730255c2b38b12c2c407408c3229190a35050565b6000610d518484846112ae565b73ffffffffffffffffffffffffffffffffffffffff8416600090815260086020526040812081610d7f61113d565b73ffffffffffffffffffffffffffffffffffffffff1673ffffffffffffffffffffffffffffffffffffffff1681526020019081526020016000205490507f80000000000000000000000000000000000000000000000000000000000000008114610e1f57610e1f85610def61113d565b610e1a8660405180606001604052806028815260200161169e6028913986919063ffffffff6114fc16565b611141565b506001949350505050565b601290565b60006105cb610e3c61113d565b84610e1a8560086000610e4d61113d565b73ffffffffffffffffffffffffffffffffffffffff908116825260208083019390935260409182016000908120918c16815292529020549063ffffffff61148116565b600091825260046020908152604080842073ffffffffffffffffffffffffffffffffffffffff93909316845291905290208054600190910154909177ffffffffffffffffffffffffffffffffffffffffffffffff8216917801000000000000000000000000000000000000000000000000900467ffffffffffffffff1690565b73ffffffffffffffffffffffffffffffffffffffff1660009081526007602052604090205490565b604080517f656e6475722e696f00000000000000000000000000000000000000000000000081528151908190036008019020600090815260046020908152828220828052905220600181015477ffffffffffffffffffffffffffffffffffffffffffffffff161561100a57604080517f08c379a000000000000000000000000000000000000000000000000000000000815260206004820152601360248201527f616c726561647920696e697469616c697a656400000000000000000000000000604482015290519081900360640190fd5b60010180547fffffffffffffffff00000000000000000000000000000000000000000000000016670de0b6b3a7640000179055565b60408051808201909152600381527f454e440000000000000000000000000000000000000000000000000000000000602082015290565b60006105cb61108361113d565b84610e1a8560405180606001604052806025815260200161170f60259139600860006110ad61113d565b73ffffffffffffffffffffffffffffffffffffffff908116825260208083019390935260409182016000908120918d1681529252902054919063ffffffff6114fc16565b60006105cb6110fe61113d565b84846112ae565b73ffffffffffffffffffffffffffffffffffffffff918216600090815260086020908152604080832093909416825291909152205490565b3390565b73ffffffffffffffffffffffffffffffffffffffff83166111ad576040517f08c379a00000000000000000000000000000000000000000000000000000000081526004018080602001828103825260248152602001806116eb6024913960400191505060405180910390fd5b73ffffffffffffffffffffffffffffffffffffffff8216611219576040517f08c379a00000000000000000000000000000000000000000000000000000000081526004018080602001828103825260228152602001806116116022913960400191505060405180910390fd5b73ffffffffffffffffffffffffffffffffffffffff808416600081815260086020908152604080832094871680845294825291829020859055815185815291517f8c5be1e5ebec7d5bd14f71427d1e84f3dd0314c0f7b2291e5b200ac8c7c3b9259281900390910190a3505050565b60006112926115ad565b90911115919050565b60006105cf6112a86115ad565b836115b1565b73ffffffffffffffffffffffffffffffffffffffff831661131a576040517f08c379a00000000000000000000000000000000000000000000000000000000081526004018080602001828103825260258152602001806116c66025913960400191505060405180910390fd5b73ffffffffffffffffffffffffffffffffffffffff8216611386576040517f08c379a00000000000000000000000000000000000000000000000000000000081526004018080602001828103825260238152602001806115ee6023913960400191505060405180910390fd5b6113d6816040518060600160405280602681526020016116556026913973ffffffffffffffffffffffffffffffffffffffff8616600090815260076020526040902054919063ffffffff6114fc16565b73ffffffffffffffffffffffffffffffffffffffff8085166000908152600760205260408082209390935590841681522054611418908263ffffffff61148116565b73ffffffffffffffffffffffffffffffffffffffff80841660008181526007602090815260409182902094909455805185815290519193928716927fddf252ad1be2c89b69c2b068fc378daa952ba7f163c4a11628f55a4df523b3ef92918290030190a3505050565b6000828201838110156114f557604080517f08c379a000000000000000000000000000000000000000000000000000000000815260206004820152601b60248201527f536166654d6174683a206164646974696f6e206f766572666c6f770000000000604482015290519081900360640190fd5b9392505050565b600081848411156115a5576040517f08c379a00000000000000000000000000000000000000000000000000000000081526004018080602001828103825283818151815260200191508051906020019080838360005b8381101561156a578181015183820152602001611552565b50505050905090810190601f1680156115975780820380516001836020036101000a031916815260200191505b509250505060405180910390fd5b505050900390565b4290565b60008282018381106115c45790506105cf565b507fffffffffffffffffffffffffffffffffffffffffffffffffffffffffffffffff939250505056fe45524332303a207472616e7366657220746f20746865207a65726f206164647265737345524332303a20617070726f766520746f20746865207a65726f206164647265737321657870697265643a20696e6372656173696e67207061792072617465206f6e6c7945524332303a207472616e7366657220616d6f756e7420657863656564732062616c616e636521657870697265643a20657874656e64696e672065787069726174696f6e206f6e6c7945524332303a207472616e7366657220616d6f756e74206578636565647320616c6c6f77616e636545524332303a207472616e736665722066726f6d20746865207a65726f206164647265737345524332303a20617070726f76652066726f6d20746865207a65726f206164647265737345524332303a2064656372656173656420616c6c6f77616e63652062656c6f77207a65726fa2646970667358221220f5123db5f60bba69ff4e36a893820878e76157e681a7df3bbfb9c6442ff7f35564736f6c63430006020033",
  "source": "// SPDX-License-Identifier: MIT\npragma solidity >=0.6.2;\n\n/** @title BrandMarket */\n/** @author Zergity (https://endur.io) */\n\n// solium-disable security/no-block-members\n\nimport \"./Token.sol\";\nimport \"./lib/time.sol\";\nimport \"./DataStructure.sol\";\nimport \"./interface/Initializable.sol\";\n\n/**\n * Market for brands to bid for miner.\n *\n * @dev implemetation class can't have any state variable, all state is located in DataStructure\n */\ncontract BrandMarket is DataStructure, Token, Initializable {\n\n    function initialize() external override {\n        Brand storage brand = brands[ENDURIO_MEMO_HASH][address(0x0)];\n        require(brand.payRate == 0, \"already initialized\");\n        brand.payRate = ENDURIO_PAYRATE;\n    }\n\n    /**\n     * fund and active or power-up a brand campaign\n     */\n    function activate(\n        bytes   calldata memo,\n        uint    fund,           // END to deposit\n        uint    payRate,\n        uint    duration        // (optional) default duration of 2 weeks\n    ) external {\n        bytes32 memoHash = keccak256(memo);\n        Brand storage brand = brands[memoHash][msg.sender];\n        uint expiration = brand.expiration;\n        if (time.reach(expiration)) {\n            // new campaign\n            require(payRate > 0, \"!payRate\");\n            require(payRate < 1<<192, \"payRate overflow\");\n            brand.payRate = uint192(payRate);\n            require(fund > 0, \"!fund\");\n            expiration = time.next(duration > 0 ? duration : 2 weeks);\n            require(expiration < 1<<64, \"expiration overflow\");\n            brand.expiration = uint64(expiration);\n        } else {\n            // power-up old campaign\n            if (payRate > 0) {\n                require(payRate > brand.payRate, \"!expired: increasing pay rate only\");\n                require(payRate < 1<<192, \"payRate overflow\");\n                brand.payRate = uint192(payRate);\n            }\n            if (duration > 0) {\n                uint oldExpiration = expiration;\n                expiration = time.next(duration);\n                require(expiration > oldExpiration, \"!expired: extending expiration only\");\n                require(expiration < 1<<64, \"expiration overflow\");\n                brand.expiration = uint64(expiration);\n            }\n        }\n        uint balance = brand.balance;\n        if (fund > 0) {\n            _transfer(msg.sender, address(this), fund);\n            balance = SafeMath.add(balance, fund);\n            brand.balance = balance;\n        }\n        emit Active(memoHash, msg.sender, memo, payRate, balance, expiration);\n    }\n\n    /**\n     * deactivate the campaign and withdraw any remaining fund\n     */\n    function deactivate(bytes32 memoHash) external {\n        Brand storage brand = brands[memoHash][msg.sender];\n        require(time.reach(brand.expiration), \"!expired\");\n        _transfer(address(this), msg.sender, brand.balance);\n        delete brands[memoHash][msg.sender];\n        emit Deactive(memoHash, msg.sender);\n    }\n\n    function queryCampaign(bytes32 memoHash, address payer) external view returns (\n        uint balance,\n        uint payRate,\n        uint expiration\n    ) {\n        Brand storage brand = brands[memoHash][payer];\n        return (brand.balance, brand.payRate, brand.expiration);\n    }\n}\n",
  "sourcePath": "/home/zergity/src/github.com/endurio/PoR/contracts/BrandMarket.sol",
  "compiler": {
    "name": "solc",
    "version": "0.6.2+commit.bacdbe57.Emscripten.clang"
  },
  "schemaVersion": "3.2.4",
  "updatedAt": "2021-02-20T11:09:13.457Z",
  "devdoc": {
    "details": "implemetation class can't have any state variable, all state is located in DataStructure",
    "methods": {
      "allowance(address,address)": {
        "details": "See {IERC20-allowance}."
      },
      "approve(address,uint256)": {
        "details": "See {IERC20-approve}.     * Requirements:     * - `spender` cannot be the zero address."
      },
      "balanceOf(address)": {
        "details": "See {IERC20-balanceOf}."
      },
      "decimals()": {
        "details": "Returns the number of decimals used to get its user representation. For example, if `decimals` equals `2`, a balance of `505` tokens should be displayed to a user as `5,05` (`505 / 10 ** 2`).     * Tokens usually opt for a value of 18, imitating the relationship between Ether and Wei. This is the value {ERC20} uses, unless {_setupDecimals} is called.     * NOTE: This information is only used for _display_ purposes: it in no way affects any of the arithmetic of the contract, including {IERC20-balanceOf} and {IERC20-transfer}."
      },
      "decreaseAllowance(address,uint256)": {
        "details": "Atomically decreases the allowance granted to `spender` by the caller.     * This is an alternative to {approve} that can be used as a mitigation for problems described in {IERC20-approve}.     * Emits an {Approval} event indicating the updated allowance.     * Requirements:     * - `spender` cannot be the zero address. - `spender` must have allowance for the caller of at least `subtractedValue`."
      },
      "increaseAllowance(address,uint256)": {
        "details": "Atomically increases the allowance granted to `spender` by the caller.     * This is an alternative to {approve} that can be used as a mitigation for problems described in {IERC20-approve}.     * Emits an {Approval} event indicating the updated allowance.     * Requirements:     * - `spender` cannot be the zero address."
      },
      "name()": {
        "details": "Returns the name of the token."
      },
      "symbol()": {
        "details": "Returns the symbol of the token, usually a shorter version of the name."
      },
      "totalSupply()": {
        "details": "See {IERC20-totalSupply}."
      },
      "transfer(address,uint256)": {
        "details": "See {IERC20-transfer}.     * Requirements:     * - `recipient` cannot be the zero address. - the caller must have a balance of at least `amount`."
      },
      "transferFrom(address,address,uint256)": {
        "details": "See {IERC20-transferFrom}.     * Emits an {Approval} event indicating the updated allowance. This is not required by the EIP. See the note at the beginning of {ERC20};     * Requirements: - `sender` and `recipient` cannot be the zero address. - `sender` must have a balance of at least `amount`. - the caller must have allowance for ``sender``'s tokens of at least `amount`."
      }
    }
  },
  "userdoc": {
    "methods": {
      "activate(bytes,uint256,uint256,uint256)": {
        "notice": "fund and active or power-up a brand campaign"
      },
      "deactivate(bytes32)": {
        "notice": "deactivate the campaign and withdraw any remaining fund"
      }
    },
    "notice": "Market for brands to bid for miner."
  }
}