{
  "contractName": "Endurio",
  "abi": [
    {
      "inputs": [
        {
          "internalType": "address",
          "name": "implBrandMarket",
          "type": "address"
        },
        {
          "internalType": "address",
          "name": "implRefNetwork",
          "type": "address"
        },
        {
          "internalType": "address",
          "name": "implPoR",
          "type": "address"
        }
      ],
      "stateMutability": "nonpayable",
      "type": "constructor"
    },
    {
      "anonymous": false,
      "inputs": [
        {
          "indexed": true,
          "internalType": "bytes32",
          "name": "memoHash",
          "type": "bytes32"
        },
        {
          "indexed": true,
          "internalType": "address",
          "name": "payer",
          "type": "address"
        },
        {
          "indexed": false,
          "internalType": "bytes",
          "name": "memo",
          "type": "bytes"
        },
        {
          "indexed": false,
          "internalType": "uint256",
          "name": "payRate",
          "type": "uint256"
        },
        {
          "indexed": false,
          "internalType": "uint256",
          "name": "balance",
          "type": "uint256"
        },
        {
          "indexed": false,
          "internalType": "uint256",
          "name": "expiration",
          "type": "uint256"
        }
      ],
      "name": "Active",
      "type": "event"
    },
    {
      "anonymous": false,
      "inputs": [
        {
          "indexed": true,
          "internalType": "address",
          "name": "owner",
          "type": "address"
        },
        {
          "indexed": true,
          "internalType": "address",
          "name": "spender",
          "type": "address"
        },
        {
          "indexed": false,
          "internalType": "uint256",
          "name": "value",
          "type": "uint256"
        }
      ],
      "name": "Approval",
      "type": "event"
    },
    {
      "anonymous": false,
      "inputs": [
        {
          "indexed": true,
          "internalType": "bytes32",
          "name": "memoHash",
          "type": "bytes32"
        },
        {
          "indexed": true,
          "internalType": "address",
          "name": "payer",
          "type": "address"
        },
        {
          "indexed": true,
          "internalType": "address",
          "name": "miner",
          "type": "address"
        },
        {
          "indexed": false,
          "internalType": "uint256",
          "name": "value",
          "type": "uint256"
        }
      ],
      "name": "Claim",
      "type": "event"
    },
    {
      "anonymous": false,
      "inputs": [
        {
          "indexed": true,
          "internalType": "address",
          "name": "payer",
          "type": "address"
        },
        {
          "indexed": true,
          "internalType": "address",
          "name": "miner",
          "type": "address"
        },
        {
          "indexed": false,
          "internalType": "uint256",
          "name": "value",
          "type": "uint256"
        }
      ],
      "name": "CommissionLost",
      "type": "event"
    },
    {
      "anonymous": false,
      "inputs": [
        {
          "indexed": true,
          "internalType": "address",
          "name": "payer",
          "type": "address"
        },
        {
          "indexed": true,
          "internalType": "address",
          "name": "miner",
          "type": "address"
        },
        {
          "indexed": true,
          "internalType": "address",
          "name": "payee",
          "type": "address"
        },
        {
          "indexed": false,
          "internalType": "uint256",
          "name": "value",
          "type": "uint256"
        }
      ],
      "name": "CommissionPaid",
      "type": "event"
    },
    {
      "anonymous": false,
      "inputs": [
        {
          "indexed": true,
          "internalType": "address",
          "name": "payer",
          "type": "address"
        },
        {
          "indexed": true,
          "internalType": "address",
          "name": "miner",
          "type": "address"
        },
        {
          "indexed": false,
          "internalType": "uint256",
          "name": "value",
          "type": "uint256"
        }
      ],
      "name": "CommissionRoot",
      "type": "event"
    },
    {
      "anonymous": false,
      "inputs": [
        {
          "indexed": true,
          "internalType": "address",
          "name": "payer",
          "type": "address"
        },
        {
          "indexed": true,
          "internalType": "address",
          "name": "miner",
          "type": "address"
        },
        {
          "indexed": false,
          "internalType": "uint256",
          "name": "value",
          "type": "uint256"
        }
      ],
      "name": "CommissionSkip",
      "type": "event"
    },
    {
      "anonymous": false,
      "inputs": [
        {
          "indexed": true,
          "internalType": "bytes32",
          "name": "memoHash",
          "type": "bytes32"
        },
        {
          "indexed": true,
          "internalType": "address",
          "name": "payer",
          "type": "address"
        }
      ],
      "name": "Deactive",
      "type": "event"
    },
    {
      "anonymous": false,
      "inputs": [
        {
          "indexed": true,
          "internalType": "bytes32",
          "name": "key",
          "type": "bytes32"
        },
        {
          "indexed": false,
          "internalType": "uint256",
          "name": "value",
          "type": "uint256"
        }
      ],
      "name": "GlobalConfig",
      "type": "event"
    },
    {
      "anonymous": false,
      "inputs": [
        {
          "indexed": true,
          "internalType": "bytes32",
          "name": "key",
          "type": "bytes32"
        },
        {
          "indexed": false,
          "internalType": "address",
          "name": "value",
          "type": "address"
        }
      ],
      "name": "GlobalConfig",
      "type": "event"
    },
    {
      "anonymous": false,
      "inputs": [
        {
          "indexed": true,
          "internalType": "bytes32",
          "name": "signature",
          "type": "bytes32"
        },
        {
          "indexed": true,
          "internalType": "address",
          "name": "implementation",
          "type": "address"
        }
      ],
      "name": "Implementation",
      "type": "event"
    },
    {
      "anonymous": false,
      "inputs": [
        {
          "indexed": false,
          "internalType": "bytes32",
          "name": "blockHash",
          "type": "bytes32"
        },
        {
          "indexed": true,
          "internalType": "bytes32",
          "name": "memoHash",
          "type": "bytes32"
        },
        {
          "indexed": true,
          "internalType": "address",
          "name": "payer",
          "type": "address"
        },
        {
          "indexed": true,
          "internalType": "bytes32",
          "name": "pubkey",
          "type": "bytes32"
        },
        {
          "indexed": false,
          "internalType": "uint256",
          "name": "amount",
          "type": "uint256"
        },
        {
          "indexed": false,
          "internalType": "uint256",
          "name": "timestamp",
          "type": "uint256"
        }
      ],
      "name": "Submit",
      "type": "event"
    },
    {
      "anonymous": false,
      "inputs": [
        {
          "indexed": true,
          "internalType": "address",
          "name": "from",
          "type": "address"
        },
        {
          "indexed": true,
          "internalType": "address",
          "name": "to",
          "type": "address"
        },
        {
          "indexed": false,
          "internalType": "uint256",
          "name": "value",
          "type": "uint256"
        }
      ],
      "name": "Transfer",
      "type": "event"
    },
    {
      "stateMutability": "payable",
      "type": "fallback"
    },
    {
      "inputs": [
        {
          "internalType": "address",
          "name": "owner",
          "type": "address"
        },
        {
          "internalType": "address",
          "name": "spender",
          "type": "address"
        }
      ],
      "name": "allowance",
      "outputs": [
        {
          "internalType": "uint256",
          "name": "",
          "type": "uint256"
        }
      ],
      "stateMutability": "view",
      "type": "function"
    },
    {
      "inputs": [
        {
          "internalType": "address",
          "name": "spender",
          "type": "address"
        },
        {
          "internalType": "uint256",
          "name": "amount",
          "type": "uint256"
        }
      ],
      "name": "approve",
      "outputs": [
        {
          "internalType": "bool",
          "name": "",
          "type": "bool"
        }
      ],
      "stateMutability": "nonpayable",
      "type": "function"
    },
    {
      "inputs": [
        {
          "internalType": "address",
          "name": "account",
          "type": "address"
        }
      ],
      "name": "balanceOf",
      "outputs": [
        {
          "internalType": "uint256",
          "name": "",
          "type": "uint256"
        }
      ],
      "stateMutability": "view",
      "type": "function"
    },
    {
      "inputs": [],
      "name": "decimals",
      "outputs": [
        {
          "internalType": "uint8",
          "name": "",
          "type": "uint8"
        }
      ],
      "stateMutability": "pure",
      "type": "function"
    },
    {
      "inputs": [
        {
          "internalType": "address",
          "name": "spender",
          "type": "address"
        },
        {
          "internalType": "uint256",
          "name": "subtractedValue",
          "type": "uint256"
        }
      ],
      "name": "decreaseAllowance",
      "outputs": [
        {
          "internalType": "bool",
          "name": "",
          "type": "bool"
        }
      ],
      "stateMutability": "nonpayable",
      "type": "function"
    },
    {
      "inputs": [
        {
          "internalType": "address",
          "name": "spender",
          "type": "address"
        },
        {
          "internalType": "uint256",
          "name": "addedValue",
          "type": "uint256"
        }
      ],
      "name": "increaseAllowance",
      "outputs": [
        {
          "internalType": "bool",
          "name": "",
          "type": "bool"
        }
      ],
      "stateMutability": "nonpayable",
      "type": "function"
    },
    {
      "inputs": [],
      "name": "name",
      "outputs": [
        {
          "internalType": "string",
          "name": "",
          "type": "string"
        }
      ],
      "stateMutability": "pure",
      "type": "function"
    },
    {
      "inputs": [],
      "name": "symbol",
      "outputs": [
        {
          "internalType": "string",
          "name": "",
          "type": "string"
        }
      ],
      "stateMutability": "pure",
      "type": "function"
    },
    {
      "inputs": [],
      "name": "totalSupply",
      "outputs": [
        {
          "internalType": "uint256",
          "name": "",
          "type": "uint256"
        }
      ],
      "stateMutability": "view",
      "type": "function"
    },
    {
      "inputs": [
        {
          "internalType": "address",
          "name": "sender",
          "type": "address"
        },
        {
          "internalType": "address",
          "name": "recipient",
          "type": "address"
        },
        {
          "internalType": "uint256",
          "name": "amount",
          "type": "uint256"
        }
      ],
      "name": "transferFrom",
      "outputs": [
        {
          "internalType": "bool",
          "name": "",
          "type": "bool"
        }
      ],
      "stateMutability": "nonpayable",
      "type": "function"
    },
    {
      "stateMutability": "payable",
      "type": "receive"
    },
    {
      "inputs": [
        {
          "internalType": "address",
          "name": "recipient",
          "type": "address"
        },
        {
          "internalType": "uint256",
          "name": "amount",
          "type": "uint256"
        }
      ],
      "name": "transfer",
      "outputs": [
        {
          "internalType": "bool",
          "name": "",
          "type": "bool"
        }
      ],
      "stateMutability": "nonpayable",
      "type": "function"
    },
    {
      "inputs": [
        {
          "internalType": "address",
          "name": "recipient",
          "type": "address"
        },
        {
          "internalType": "uint256",
          "name": "amount",
          "type": "uint256"
        },
        {
          "internalType": "bytes",
          "name": "",
          "type": "bytes"
        }
      ],
      "name": "transfer",
      "outputs": [
        {
          "internalType": "bool",
          "name": "",
          "type": "bool"
        }
      ],
      "stateMutability": "nonpayable",
      "type": "function"
    },
    {
      "inputs": [
        {
          "internalType": "bytes32",
          "name": "sign",
          "type": "bytes32"
        },
        {
          "internalType": "address",
          "name": "impl",
          "type": "address"
        }
      ],
      "name": "setImplementation",
      "outputs": [],
      "stateMutability": "nonpayable",
      "type": "function"
    },
    {
      "inputs": [
        {
          "internalType": "bytes32",
          "name": "signs",
          "type": "bytes32"
        },
        {
          "internalType": "address",
          "name": "impl",
          "type": "address"
        }
      ],
      "name": "setImplementations",
      "outputs": [],
      "stateMutability": "nonpayable",
      "type": "function"
    },
    {
      "inputs": [
        {
          "internalType": "address",
          "name": "owner",
          "type": "address"
        }
      ],
      "name": "setOwner",
      "outputs": [],
      "stateMutability": "nonpayable",
      "type": "function"
    },
    {
      "inputs": [
        {
          "internalType": "address",
          "name": "root",
          "type": "address"
        }
      ],
      "name": "setRoot",
      "outputs": [],
      "stateMutability": "nonpayable",
      "type": "function"
    },
    {
      "inputs": [
        {
          "internalType": "uint256",
          "name": "comRate",
          "type": "uint256"
        }
      ],
      "name": "setComRate",
      "outputs": [],
      "stateMutability": "nonpayable",
      "type": "function"
    },
    {
      "inputs": [
        {
          "internalType": "uint256",
          "name": "rentScale",
          "type": "uint256"
        }
      ],
      "name": "setRentScale",
      "outputs": [],
      "stateMutability": "nonpayable",
      "type": "function"
    },
    {
      "inputs": [],
      "name": "getGlobalConfig",
      "outputs": [
        {
          "internalType": "address",
          "name": "owner",
          "type": "address"
        },
        {
          "internalType": "address",
          "name": "root",
          "type": "address"
        },
        {
          "internalType": "uint256",
          "name": "comRate",
          "type": "uint256"
        },
        {
          "internalType": "uint256",
          "name": "rentScale",
          "type": "uint256"
        }
      ],
      "stateMutability": "view",
      "type": "function"
    }
  ],
  "bytecode": "0x6101406040526000608081905260a081905260c081905260e0819052631dcd65006101008190526103e86101205260018290556002919091556003805463ffffffff191690911763ffffffff166503e80000000017905534801561006257600080fd5b5060405162001c2a38038062001c2a8339818101604052606081101561008757600080fd5b50805160208083015160409384015160018054336001600160a01b0319918216811790925560028054909116909117905584518086019095526004855263204a7f0760e21b9285019290925291926100e09084906102b5565b600060208190527fd82517ca4ddf9897d23f02efea263161c76d54a1ac9fb64e3221f2e946f1145980546001600160a01b039586166001600160a01b031991821681179092557fd1a97f6fe204940327620543c54ac2c6a1e9728f9cdcecd8a499ece5e55a2db080548216831790557f1f725908ab2d93e75260f08bbe14fedec36ed8e9e3fc146729fecd1872f37695805482169092179091557f07afa4ab4aa0c06f6be4c6754236f0e8899ea6ef4aaa4582a4ef4066ae3631388054938616938216841790557f5c3812c88c970ea838eb83e84713c0df218551d4c9c7e1875714cc622108ec9e805482169093179092557f16ead76061fad353228c565d51e103d9d47aa5bfd17cde62fecec423e7e4d32280549390941692821683179093557f854272fdc99ce9a7ab1b6bd01b60ce32fc76d8ce13524e9103ba789d9569b3d180548216831790557f4334b111fc4fd4d98f1a3d00c1d3ec965b1f687f4dd66dffa831aba460847ba280548216831790557fe1fadf072a50ecc4fc5b354e989e10d116d7274c995210fea7b73b77e1036b1680548216831790556304c097f160e11b9092527f3c80904b5a78912e371fb15b041aabd633702cfec144e8fa7cbc823c1c50b3bd805490921617905561036f565b6000826001600160a01b0316826040518082805190602001908083835b602083106102f15780518252601f1990920191602091820191016102d2565b6001836020036101000a038019825116818451168082178552505050505050905001915050600060405180830381855af49150503d8060008114610351576040519150601f19603f3d011682016040523d82523d6000602084013e610356565b606091505b505090508061036a573d806000803e806000fd5b505050565b6118ab806200037f6000396000f3fe6080604052600436106101475760003560e01c80634640e9f2116100c0578063a457c2d711610074578063be45fd6211610059578063be45fd62146105d2578063cda92be414610671578063dd62ed3e146106c5576101b3565b8063a457c2d714610546578063a9059cbb1461058c576101b3565b806373301947116100a557806373301947146104c157806395d89b41146105075780639699d3091461051c576101b3565b80634640e9f21461043b57806370a0823114610481576101b3565b806318160ddd116101175780632fe87d8f116100fc5780632fe87d8f146103a0578063313ce567146103ca57806339509351146103f5576101b3565b806318160ddd1461032957806323b872dd14610350576101b3565b80623ba1ed146101c557806306fdde0314610205578063095ea7b31461028f57806313af4035146102e9576101b3565b366101b357604080517f08c379a000000000000000000000000000000000000000000000000000000000815260206004820152600a60248201527f4e6f207468616e6b732100000000000000000000000000000000000000000000604482015290519081900360640190fd5b6101c36101be61070d565b6107c6565b005b3480156101d157600080fd5b506101c3600480360360208110156101e857600080fd5b503573ffffffffffffffffffffffffffffffffffffffff166107f1565b34801561021157600080fd5b5061021a610935565b6040805160208082528351818301528351919283929083019185019080838360005b8381101561025457818101518382015260200161023c565b50505050905090810190601f1680156102815780820380516001836020036101000a031916815260200191505b509250505060405180910390f35b34801561029b57600080fd5b506102d5600480360360408110156102b257600080fd5b5073ffffffffffffffffffffffffffffffffffffffff813516906020013561096c565b604080519115158252519081900360200190f35b3480156102f557600080fd5b506101c36004803603602081101561030c57600080fd5b503573ffffffffffffffffffffffffffffffffffffffff16610989565b34801561033557600080fd5b5061033e610aab565b60408051918252519081900360200190f35b34801561035c57600080fd5b506102d56004803603606081101561037357600080fd5b5073ffffffffffffffffffffffffffffffffffffffff813581169160208101359091169060400135610ab1565b3480156103ac57600080fd5b506101c3600480360360208110156103c357600080fd5b5035610b97565b3480156103d657600080fd5b506103df610d3d565b6040805160ff9092168252519081900360200190f35b34801561040157600080fd5b506102d56004803603604081101561041857600080fd5b5073ffffffffffffffffffffffffffffffffffffffff8135169060200135610d42565b34801561044757600080fd5b506101c36004803603604081101561045e57600080fd5b508035906020013573ffffffffffffffffffffffffffffffffffffffff16610da3565b34801561048d57600080fd5b5061033e600480360360208110156104a457600080fd5b503573ffffffffffffffffffffffffffffffffffffffff16610e37565b3480156104cd57600080fd5b506101c3600480360360408110156104e457600080fd5b508035906020013573ffffffffffffffffffffffffffffffffffffffff16610e5f565b34801561051357600080fd5b5061021a610f5e565b34801561052857600080fd5b506101c36004803603602081101561053f57600080fd5b5035610f95565b34801561055257600080fd5b506102d56004803603604081101561056957600080fd5b5073ffffffffffffffffffffffffffffffffffffffff8135169060200135611156565b34801561059857600080fd5b506102d5600480360360408110156105af57600080fd5b5073ffffffffffffffffffffffffffffffffffffffff81351690602001356111d1565b3480156105de57600080fd5b506102d5600480360360608110156105f557600080fd5b73ffffffffffffffffffffffffffffffffffffffff8235169160208101359181019060608101604082013564010000000081111561063257600080fd5b82018360208201111561064457600080fd5b8035906020019184600183028401116401000000008311171561066657600080fd5b5090925090506111e5565b34801561067d57600080fd5b506106866111f9565b6040805173ffffffffffffffffffffffffffffffffffffffff958616815293909416602084015282840191909152606082015290519081900360800190f35b3480156106d157600080fd5b5061033e600480360360408110156106e857600080fd5b5073ffffffffffffffffffffffffffffffffffffffff81358116916020013516611251565b600080357fffffffff000000000000000000000000000000000000000000000000000000001681526020819052604081205473ffffffffffffffffffffffffffffffffffffffff16806107c157604080517f08c379a000000000000000000000000000000000000000000000000000000000815260206004820152601260248201527f66756e6374696f6e206e6f742065786973740000000000000000000000000000604482015290519081900360640190fd5b905090565b3660008037600080366000845af43d806000803e8180156107e657816000f35b816000fd5b50505050565b60025473ffffffffffffffffffffffffffffffffffffffff1633148061082e575060015473ffffffffffffffffffffffffffffffffffffffff1633145b61089957604080517f08c379a000000000000000000000000000000000000000000000000000000000815260206004820152600560248201527f21726f6f74000000000000000000000000000000000000000000000000000000604482015290519081900360640190fd5b6002805473ffffffffffffffffffffffffffffffffffffffff83167fffffffffffffffffffffffff0000000000000000000000000000000000000000909116811790915560408051918252517f726f6f7400000000000000000000000000000000000000000000000000000000917f4e4943caeb4e5754d185614006337491035bbdae166a5ec54a35b8b2353ab771919081900360200190a250565b60408051808201909152600781527f456e647572696f00000000000000000000000000000000000000000000000000602082015290565b6000610980610979611289565b848461128d565b50600192915050565b60015473ffffffffffffffffffffffffffffffffffffffff163314610a0f57604080517f08c379a000000000000000000000000000000000000000000000000000000000815260206004820152600660248201527f216f776e65720000000000000000000000000000000000000000000000000000604482015290519081900360640190fd5b6001805473ffffffffffffffffffffffffffffffffffffffff83167fffffffffffffffffffffffff0000000000000000000000000000000000000000909116811790915560408051918252517f6f776e6572000000000000000000000000000000000000000000000000000000917f4e4943caeb4e5754d185614006337491035bbdae166a5ec54a35b8b2353ab771919081900360200190a250565b60095490565b6000610abe8484846113d4565b73ffffffffffffffffffffffffffffffffffffffff8416600090815260086020526040812081610aec611289565b73ffffffffffffffffffffffffffffffffffffffff1673ffffffffffffffffffffffffffffffffffffffff1681526020019081526020016000205490507f80000000000000000000000000000000000000000000000000000000000000008114610b8c57610b8c85610b5c611289565b610b87866040518060600160405280602881526020016117e06028913986919063ffffffff6115a716565b61128d565b506001949350505050565b60025473ffffffffffffffffffffffffffffffffffffffff16331480610bd4575060015473ffffffffffffffffffffffffffffffffffffffff1633145b610c3f57604080517f08c379a000000000000000000000000000000000000000000000000000000000815260206004820152600560248201527f21726f6f74000000000000000000000000000000000000000000000000000000604482015290519081900360640190fd5b6401000000008110610cb257604080517f08c379a000000000000000000000000000000000000000000000000000000000815260206004820152600760248201527f3e33326269747300000000000000000000000000000000000000000000000000604482015290519081900360640190fd5b6003805463ffffffff83167fffffffffffffffffffffffffffffffffffffffffffffffffffffffff000000009091161790556040805182815290517f436f6d5261746500000000000000000000000000000000000000000000000000917fc3b383af608d28c0aa0593c480e19807d8f3a5f9b9db8edfa41461a682b47f59919081900360200190a250565b601290565b6000610980610d4f611289565b84610b878560086000610d60611289565b73ffffffffffffffffffffffffffffffffffffffff908116825260208083019390935260409182016000908120918c16815292529020549063ffffffff61165816565b60015473ffffffffffffffffffffffffffffffffffffffff163314610e2957604080517f08c379a000000000000000000000000000000000000000000000000000000000815260206004820152600660248201527f216f776e65720000000000000000000000000000000000000000000000000000604482015290519081900360640190fd5b610e3382826116d3565b5050565b73ffffffffffffffffffffffffffffffffffffffff1660009081526007602052604090205490565b60015473ffffffffffffffffffffffffffffffffffffffff163314610ee557604080517f08c379a000000000000000000000000000000000000000000000000000000000815260206004820152600660248201527f216f776e65720000000000000000000000000000000000000000000000000000604482015290519081900360640190fd5b8160005b60088110156107eb57817fffffffff000000000000000000000000000000000000000000000000000000008116610f2257505050610e33565b610f4e7fffffffff000000000000000000000000000000000000000000000000000000008216856116d3565b5060209190911b90600101610ee9565b60408051808201909152600381527f454e440000000000000000000000000000000000000000000000000000000000602082015290565b60025473ffffffffffffffffffffffffffffffffffffffff16331480610fd2575060015473ffffffffffffffffffffffffffffffffffffffff1633145b61103d57604080517f08c379a000000000000000000000000000000000000000000000000000000000815260206004820152600560248201527f21726f6f74000000000000000000000000000000000000000000000000000000604482015290519081900360640190fd5b7c010000000000000000000000000000000000000000000000000000000081106110c857604080517f08c379a000000000000000000000000000000000000000000000000000000000815260206004820152600860248201527f3e32323462697473000000000000000000000000000000000000000000000000604482015290519081900360640190fd5b600380547bffffffffffffffffffffffffffffffffffffffffffffffffffffffff83166401000000000263ffffffff9091161790556040805182815290517f52656e745363616c650000000000000000000000000000000000000000000000917fc3b383af608d28c0aa0593c480e19807d8f3a5f9b9db8edfa41461a682b47f59919081900360200190a250565b6000610980611163611289565b84610b8785604051806060016040528060258152602001611851602591396008600061118d611289565b73ffffffffffffffffffffffffffffffffffffffff908116825260208083019390935260409182016000908120918d1681529252902054919063ffffffff6115a716565b60006109806111de611289565b84846113d4565b6000610b8c6111f2611289565b86866113d4565b60015460025460035473ffffffffffffffffffffffffffffffffffffffff92831693929091169163ffffffff82169164010000000090047bffffffffffffffffffffffffffffffffffffffffffffffffffffffff1690565b73ffffffffffffffffffffffffffffffffffffffff918216600090815260086020908152604080832093909416825291909152205490565b3390565b73ffffffffffffffffffffffffffffffffffffffff83166112f9576040517f08c379a000000000000000000000000000000000000000000000000000000000815260040180806020018281038252602481526020018061182d6024913960400191505060405180910390fd5b73ffffffffffffffffffffffffffffffffffffffff8216611365576040517f08c379a00000000000000000000000000000000000000000000000000000000081526004018080602001828103825260228152602001806117986022913960400191505060405180910390fd5b73ffffffffffffffffffffffffffffffffffffffff808416600081815260086020908152604080832094871680845294825291829020859055815185815291517f8c5be1e5ebec7d5bd14f71427d1e84f3dd0314c0f7b2291e5b200ac8c7c3b9259281900390910190a3505050565b73ffffffffffffffffffffffffffffffffffffffff8316611440576040517f08c379a00000000000000000000000000000000000000000000000000000000081526004018080602001828103825260258152602001806118086025913960400191505060405180910390fd5b73ffffffffffffffffffffffffffffffffffffffff82166114ac576040517f08c379a00000000000000000000000000000000000000000000000000000000081526004018080602001828103825260238152602001806117756023913960400191505060405180910390fd5b6114fc816040518060600160405280602681526020016117ba6026913973ffffffffffffffffffffffffffffffffffffffff8616600090815260076020526040902054919063ffffffff6115a716565b73ffffffffffffffffffffffffffffffffffffffff808516600090815260076020526040808220939093559084168152205461153e908263ffffffff61165816565b73ffffffffffffffffffffffffffffffffffffffff80841660008181526007602090815260409182902094909455805185815290519193928716927fddf252ad1be2c89b69c2b068fc378daa952ba7f163c4a11628f55a4df523b3ef92918290030190a3505050565b60008184841115611650576040517f08c379a00000000000000000000000000000000000000000000000000000000081526004018080602001828103825283818151815260200191508051906020019080838360005b838110156116155781810151838201526020016115fd565b50505050905090810190601f1680156116425780820380516001836020036101000a031916815260200191505b509250505060405180910390fd5b505050900390565b6000828201838110156116cc57604080517f08c379a000000000000000000000000000000000000000000000000000000000815260206004820152601b60248201527f536166654d6174683a206164646974696f6e206f766572666c6f770000000000604482015290519081900360640190fd5b9392505050565b7fffffffff00000000000000000000000000000000000000000000000000000000821660009081526020819052604080822080547fffffffffffffffffffffffff00000000000000000000000000000000000000001673ffffffffffffffffffffffffffffffffffffffff85169081179091559051909184917fda542aa9efb5161637ad155513b9cce1d57758ecd2bcce185c633c877e3154669190a3505056fe45524332303a207472616e7366657220746f20746865207a65726f206164647265737345524332303a20617070726f766520746f20746865207a65726f206164647265737345524332303a207472616e7366657220616d6f756e7420657863656564732062616c616e636545524332303a207472616e7366657220616d6f756e74206578636565647320616c6c6f77616e636545524332303a207472616e736665722066726f6d20746865207a65726f206164647265737345524332303a20617070726f76652066726f6d20746865207a65726f206164647265737345524332303a2064656372656173656420616c6c6f77616e63652062656c6f77207a65726fa2646970667358221220e1cc9eab9774513dc05710710c6892d1d1d80ee73b65535a80366e026c27950d64736f6c63430006020033",
  "source": "// SPDX-License-Identifier: MIT\npragma solidity >=0.6.2;\n\n/** @title Endurio */\n/** @author Zergity (https://endur.io) */\n\n// solium-disable security/no-inline-assembly\n\nimport \"./Token.sol\";\nimport \"./DataStructure.sol\";\n\n/**\n * Endurio is an ERC20 and an Upgradable Proxy with 3 implementation contracts: PoR, BrandMarket and RefNetwork\n *\n * @dev proxy class can't have any (structured) state variable, all state is located in DataStructure and Token\n */\ncontract Endurio is DataStructure, Token {\n    /**\n     * @dev Emitted when the implementation is changed.\n     * @param signature 4-bytes function signature.\n     * @param implementation Address of the new implementation.\n     */\n    event Implementation(bytes32 indexed signature, address indexed implementation);\n\n    constructor(\n        // address implERC20,\n        address implBrandMarket,\n        address implRefNetwork,\n        address implPoR\n    ) public {\n        config.owner = msg.sender;  // responsible for contract upgrade\n        config.root = msg.sender;\n\n        // delegate call initialize() for each implementations\n        mustDelegateCall(implBrandMarket, hex\"8129fc1c\");\n\n        // All ERC20 functions are not upgradable\n\n        // generator script: change the contract name in export part\n        // (export CONTRACT=PoR; cd ..; cat ./build/contracts/$CONTRACT.json | sed -ne '/\"legacyAST\": {/,$p' | grep -A7 functionSelector | grep 'functionSelector\\|\"name\": \"' | sed 's/[\",]//g' | sed 's/.*: //g' | sed 'N;s/\\n/ /' | awk '{print \"impls[0x\"$0}' | sed \"s/ /] = impl$CONTRACT;\\t\\/\\/ /g\")\n        impls[0x0af77eb1] = implBrandMarket;    // activate\n        impls[0x22eee84c] = implBrandMarket;    // deactivate\n        impls[0x56cb121d] = implBrandMarket;    // queryCampaign\n        impls[0xf9fcd029] = implPoR;    // claim\n        impls[0xf4b0bafa] = implPoR;    // submit\n        impls[0x7a0ca1e2] = implRefNetwork;     // attach\n        impls[0xe5d9c0ad] = implRefNetwork;     // update\n        impls[0xd4fc9fc6] = implRefNetwork;     // query\n        impls[0xdffb35bb] = implRefNetwork;     // setCutbackRate\n        impls[0x09812fe2] = implRefNetwork;     // reward\n    }\n\n    function mustDelegateCall(address impl, bytes memory data) internal {\n        (bool ok,) = impl.delegatecall(data);\n        if (!ok) {\n            assembly {\n                let size := returndatasize()\n                returndatacopy(0, 0, size)\n                revert(0, size)\n            }\n        }\n    }\n\n    /**\n     * Extra function to attach a message to a transfer\n     *\n     * Requirements:\n     * - `recipient` cannot be the zero address.\n     * - the caller must have a balance of at least `amount`.\n     */\n    function transfer(address recipient, uint256 amount, bytes calldata) external returns (bool) {\n        _transfer(_msgSender(), recipient, amount);\n        return true;\n    }\n\n    /**\n     * set the implementation contract for a single function signature.\n     */\n    function setImplementation(bytes32 sign, address impl) external {\n        require(msg.sender == config.owner, \"!owner\");\n        // TODO: verify impl is a contract\n        _setImplementation(sign, impl);\n    }\n\n    /**\n     * set implementation contract for multiple function signatures,\n     * packed in the signs from the left.\n     */\n    function setImplementations(bytes32 signs, address impl) external {\n        require(msg.sender == config.owner, \"!owner\");\n        // TODO: verify impl is a contract\n        bytes32 ss = signs;\n        for (uint i = 0; i < 8; ++i) {\n            bytes4 sign = bytes4(ss);\n            if (sign == 0) {\n                return;\n            }\n            _setImplementation(sign, impl);\n            ss <<= 32;\n        }\n    }\n\n    function _setImplementation(bytes32 sign, address impl) internal {\n        impls[bytes4(sign)] = impl;\n        emit Implementation(sign, impl);\n    }\n\n    function setOwner(address owner) external {\n        require(msg.sender == config.owner, \"!owner\");\n        config.owner = owner;\n        emit GlobalConfig(\"owner\", owner);\n    }\n\n    function setRoot(address root) external {\n        require(msg.sender == config.root || msg.sender == config.owner, \"!root\");\n        config.root = root;\n        emit GlobalConfig(\"root\", root);\n    }\n\n    function setComRate(uint comRate) external {\n        require(msg.sender == config.root || msg.sender == config.owner, \"!root\");\n        require(comRate < 1<<32, \">32bits\");\n        config.comRate = uint32(comRate);\n        emit GlobalConfig(\"ComRate\", comRate);\n    }\n\n    function setRentScale(uint rentScale) external {\n        require(msg.sender == config.root || msg.sender == config.owner, \"!root\");\n        require(rentScale < 1<<224, \">224bits\");\n        config.rentScale = uint224(rentScale);\n        emit GlobalConfig(\"RentScale\", rentScale);\n    }\n\n    function getGlobalConfig() external view returns (address owner, address root, uint comRate, uint rentScale) {\n        return (config.owner, config.root, config.comRate, config.rentScale);\n    }\n\n    /**\n     * @dev fallback implementation.\n     * Extracted to enable manual triggering.\n     */\n    fallback() external payable {\n        _delegate(_implementation());\n    }\n\n    /**\n     * @dev Returns the current implementation.\n     * @return Address of the current implementation\n     */\n    function _implementation() internal view returns (address) {\n        address impl = impls[msg.sig];\n        require(impl != address(0x0), \"function not exist\");\n        return impl;\n    }\n\n    /**\n     * @dev Delegates execution to an implementation contract.\n     * This is a low level function that doesn't return to its internal call site.\n     * It will return to the external caller whatever the implementation returns.\n     * @param implementation Address to delegate.\n     */\n    function _delegate(address implementation) internal {\n        assembly {\n            // Copy msg.data. We take full control of memory in this inline assembly\n            // block because it will not return to Solidity code. We overwrite the\n            // Solidity scratch pad at memory position 0.\n            calldatacopy(0, 0, calldatasize())\n\n            // Call the implementation.\n            // out and outsize are 0 because we don't know the size yet.\n            let result := delegatecall(gas(), implementation, 0, calldatasize(), 0, 0)\n\n            let size := returndatasize()\n            // Copy the returned data.\n            returndatacopy(0, 0, size)\n\n            switch result\n            // delegatecall returns 0 on error.\n            case 0 { revert(0, size) }\n            default { return(0, size) }\n        }\n    }\n}\n",
  "sourcePath": "/home/zergity/src/github.com/endurio/PoR/contracts/Endurio.sol",
  "compiler": {
    "name": "solc",
    "version": "0.6.2+commit.bacdbe57.Emscripten.clang"
  },
  "schemaVersion": "3.2.4",
  "updatedAt": "2021-02-20T11:09:13.469Z",
  "devdoc": {
    "details": "proxy class can't have any (structured) state variable, all state is located in DataStructure and Token",
    "methods": {
      "allowance(address,address)": {
        "details": "See {IERC20-allowance}."
      },
      "approve(address,uint256)": {
        "details": "See {IERC20-approve}.     * Requirements:     * - `spender` cannot be the zero address."
      },
      "balanceOf(address)": {
        "details": "See {IERC20-balanceOf}."
      },
      "decimals()": {
        "details": "Returns the number of decimals used to get its user representation. For example, if `decimals` equals `2`, a balance of `505` tokens should be displayed to a user as `5,05` (`505 / 10 ** 2`).     * Tokens usually opt for a value of 18, imitating the relationship between Ether and Wei. This is the value {ERC20} uses, unless {_setupDecimals} is called.     * NOTE: This information is only used for _display_ purposes: it in no way affects any of the arithmetic of the contract, including {IERC20-balanceOf} and {IERC20-transfer}."
      },
      "decreaseAllowance(address,uint256)": {
        "details": "Atomically decreases the allowance granted to `spender` by the caller.     * This is an alternative to {approve} that can be used as a mitigation for problems described in {IERC20-approve}.     * Emits an {Approval} event indicating the updated allowance.     * Requirements:     * - `spender` cannot be the zero address. - `spender` must have allowance for the caller of at least `subtractedValue`."
      },
      "increaseAllowance(address,uint256)": {
        "details": "Atomically increases the allowance granted to `spender` by the caller.     * This is an alternative to {approve} that can be used as a mitigation for problems described in {IERC20-approve}.     * Emits an {Approval} event indicating the updated allowance.     * Requirements:     * - `spender` cannot be the zero address."
      },
      "name()": {
        "details": "Returns the name of the token."
      },
      "symbol()": {
        "details": "Returns the symbol of the token, usually a shorter version of the name."
      },
      "totalSupply()": {
        "details": "See {IERC20-totalSupply}."
      },
      "transfer(address,uint256)": {
        "details": "See {IERC20-transfer}.     * Requirements:     * - `recipient` cannot be the zero address. - the caller must have a balance of at least `amount`."
      },
      "transferFrom(address,address,uint256)": {
        "details": "See {IERC20-transferFrom}.     * Emits an {Approval} event indicating the updated allowance. This is not required by the EIP. See the note at the beginning of {ERC20};     * Requirements: - `sender` and `recipient` cannot be the zero address. - `sender` must have a balance of at least `amount`. - the caller must have allowance for ``sender``'s tokens of at least `amount`."
      }
    }
  },
  "userdoc": {
    "methods": {
      "setImplementation(bytes32,address)": {
        "notice": "set the implementation contract for a single function signature."
      },
      "setImplementations(bytes32,address)": {
        "notice": "set implementation contract for multiple function signatures, packed in the signs from the left."
      },
      "transfer(address,uint256,bytes)": {
        "notice": "Extra function to attach a message to a transfer     * Requirements: - `recipient` cannot be the zero address. - the caller must have a balance of at least `amount`."
      }
    },
    "notice": "Endurio is an ERC20 and an Upgradable Proxy with 3 implementation contracts: PoR, BrandMarket and RefNetwork"
  }
}