{
  "contractName": "PoR",
  "abi": [
    {
      "anonymous": false,
      "inputs": [
        {
          "indexed": true,
          "internalType": "bytes32",
          "name": "memoHash",
          "type": "bytes32"
        },
        {
          "indexed": true,
          "internalType": "address",
          "name": "payer",
          "type": "address"
        },
        {
          "indexed": false,
          "internalType": "bytes",
          "name": "memo",
          "type": "bytes"
        },
        {
          "indexed": false,
          "internalType": "uint256",
          "name": "payRate",
          "type": "uint256"
        },
        {
          "indexed": false,
          "internalType": "uint256",
          "name": "balance",
          "type": "uint256"
        },
        {
          "indexed": false,
          "internalType": "uint256",
          "name": "expiration",
          "type": "uint256"
        }
      ],
      "name": "Active",
      "type": "event"
    },
    {
      "anonymous": false,
      "inputs": [
        {
          "indexed": true,
          "internalType": "address",
          "name": "owner",
          "type": "address"
        },
        {
          "indexed": true,
          "internalType": "address",
          "name": "spender",
          "type": "address"
        },
        {
          "indexed": false,
          "internalType": "uint256",
          "name": "value",
          "type": "uint256"
        }
      ],
      "name": "Approval",
      "type": "event"
    },
    {
      "anonymous": false,
      "inputs": [
        {
          "indexed": true,
          "internalType": "bytes32",
          "name": "blockHash",
          "type": "bytes32"
        },
        {
          "indexed": true,
          "internalType": "bytes32",
          "name": "memoHash",
          "type": "bytes32"
        },
        {
          "indexed": true,
          "internalType": "address",
          "name": "miner",
          "type": "address"
        },
        {
          "indexed": false,
          "internalType": "address",
          "name": "payer",
          "type": "address"
        },
        {
          "indexed": false,
          "internalType": "uint256",
          "name": "value",
          "type": "uint256"
        }
      ],
      "name": "Claim",
      "type": "event"
    },
    {
      "anonymous": false,
      "inputs": [
        {
          "indexed": true,
          "internalType": "address",
          "name": "payer",
          "type": "address"
        },
        {
          "indexed": true,
          "internalType": "address",
          "name": "miner",
          "type": "address"
        },
        {
          "indexed": false,
          "internalType": "uint256",
          "name": "value",
          "type": "uint256"
        }
      ],
      "name": "CommissionLost",
      "type": "event"
    },
    {
      "anonymous": false,
      "inputs": [
        {
          "indexed": true,
          "internalType": "address",
          "name": "payer",
          "type": "address"
        },
        {
          "indexed": true,
          "internalType": "address",
          "name": "miner",
          "type": "address"
        },
        {
          "indexed": true,
          "internalType": "address",
          "name": "payee",
          "type": "address"
        },
        {
          "indexed": false,
          "internalType": "uint256",
          "name": "value",
          "type": "uint256"
        }
      ],
      "name": "CommissionPaid",
      "type": "event"
    },
    {
      "anonymous": false,
      "inputs": [
        {
          "indexed": true,
          "internalType": "address",
          "name": "payer",
          "type": "address"
        },
        {
          "indexed": true,
          "internalType": "address",
          "name": "miner",
          "type": "address"
        },
        {
          "indexed": false,
          "internalType": "uint256",
          "name": "value",
          "type": "uint256"
        }
      ],
      "name": "CommissionRoot",
      "type": "event"
    },
    {
      "anonymous": false,
      "inputs": [
        {
          "indexed": true,
          "internalType": "address",
          "name": "payer",
          "type": "address"
        },
        {
          "indexed": true,
          "internalType": "address",
          "name": "miner",
          "type": "address"
        },
        {
          "indexed": false,
          "internalType": "uint256",
          "name": "value",
          "type": "uint256"
        }
      ],
      "name": "CommissionSkip",
      "type": "event"
    },
    {
      "anonymous": false,
      "inputs": [
        {
          "indexed": true,
          "internalType": "bytes32",
          "name": "memoHash",
          "type": "bytes32"
        },
        {
          "indexed": true,
          "internalType": "address",
          "name": "payer",
          "type": "address"
        }
      ],
      "name": "Deactive",
      "type": "event"
    },
    {
      "anonymous": false,
      "inputs": [
        {
          "indexed": true,
          "internalType": "bytes32",
          "name": "key",
          "type": "bytes32"
        },
        {
          "indexed": false,
          "internalType": "uint256",
          "name": "value",
          "type": "uint256"
        }
      ],
      "name": "GlobalConfig",
      "type": "event"
    },
    {
      "anonymous": false,
      "inputs": [
        {
          "indexed": true,
          "internalType": "bytes32",
          "name": "key",
          "type": "bytes32"
        },
        {
          "indexed": false,
          "internalType": "address",
          "name": "value",
          "type": "address"
        }
      ],
      "name": "GlobalConfig",
      "type": "event"
    },
    {
      "anonymous": false,
      "inputs": [
        {
          "indexed": true,
          "internalType": "bytes32",
          "name": "blockHash",
          "type": "bytes32"
        },
        {
          "indexed": true,
          "internalType": "bytes32",
          "name": "memoHash",
          "type": "bytes32"
        },
        {
          "indexed": true,
          "internalType": "bytes32",
          "name": "pubkey",
          "type": "bytes32"
        },
        {
          "indexed": false,
          "internalType": "address",
          "name": "payer",
          "type": "address"
        },
        {
          "indexed": false,
          "internalType": "uint256",
          "name": "value",
          "type": "uint256"
        },
        {
          "indexed": false,
          "internalType": "uint256",
          "name": "timestamp",
          "type": "uint256"
        }
      ],
      "name": "Submit",
      "type": "event"
    },
    {
      "anonymous": false,
      "inputs": [
        {
          "indexed": true,
          "internalType": "address",
          "name": "from",
          "type": "address"
        },
        {
          "indexed": true,
          "internalType": "address",
          "name": "to",
          "type": "address"
        },
        {
          "indexed": false,
          "internalType": "uint256",
          "name": "value",
          "type": "uint256"
        }
      ],
      "name": "Transfer",
      "type": "event"
    },
    {
      "stateMutability": "payable",
      "type": "receive"
    },
    {
      "inputs": [
        {
          "components": [
            {
              "internalType": "bytes32",
              "name": "blockHash",
              "type": "bytes32"
            },
            {
              "internalType": "bytes32",
              "name": "memoHash",
              "type": "bytes32"
            },
            {
              "internalType": "address",
              "name": "payer",
              "type": "address"
            },
            {
              "internalType": "bool",
              "name": "isPKH",
              "type": "bool"
            },
            {
              "internalType": "bool",
              "name": "skipCommission",
              "type": "bool"
            },
            {
              "internalType": "bytes32",
              "name": "pubX",
              "type": "bytes32"
            },
            {
              "internalType": "bytes32",
              "name": "pubY",
              "type": "bytes32"
            },
            {
              "internalType": "uint256",
              "name": "amount",
              "type": "uint256"
            },
            {
              "internalType": "uint256",
              "name": "timestamp",
              "type": "uint256"
            }
          ],
          "internalType": "struct PoR.ParamClaim",
          "name": "params",
          "type": "tuple"
        }
      ],
      "name": "claim",
      "outputs": [],
      "stateMutability": "nonpayable",
      "type": "function"
    },
    {
      "inputs": [
        {
          "components": [
            {
              "internalType": "address",
              "name": "payer",
              "type": "address"
            },
            {
              "internalType": "bytes",
              "name": "header",
              "type": "bytes"
            },
            {
              "internalType": "uint32",
              "name": "merkleIndex",
              "type": "uint32"
            },
            {
              "internalType": "bytes",
              "name": "merkleProof",
              "type": "bytes"
            },
            {
              "internalType": "uint32",
              "name": "version",
              "type": "uint32"
            },
            {
              "internalType": "uint32",
              "name": "locktime",
              "type": "uint32"
            },
            {
              "internalType": "bytes",
              "name": "vin",
              "type": "bytes"
            },
            {
              "internalType": "bytes",
              "name": "vout",
              "type": "bytes"
            },
            {
              "internalType": "uint32",
              "name": "inputIndex",
              "type": "uint32"
            },
            {
              "internalType": "uint32",
              "name": "memoLength",
              "type": "uint32"
            },
            {
              "internalType": "uint32",
              "name": "pubkeyPos",
              "type": "uint32"
            }
          ],
          "internalType": "struct PoR.ParamSubmit",
          "name": "params",
          "type": "tuple"
        },
        {
          "components": [
            {
              "internalType": "uint32",
              "name": "version",
              "type": "uint32"
            },
            {
              "internalType": "uint32",
              "name": "locktime",
              "type": "uint32"
            },
            {
              "internalType": "bytes",
              "name": "vin",
              "type": "bytes"
            },
            {
              "internalType": "bytes",
              "name": "vout",
              "type": "bytes"
            },
            {
              "internalType": "uint32",
              "name": "pkhPos",
              "type": "uint32"
            }
          ],
          "internalType": "struct PoR.ParamOutpoint[]",
          "name": "outpoint",
          "type": "tuple[]"
        },
        {
          "components": [
            {
              "internalType": "bytes",
              "name": "header",
              "type": "bytes"
            },
            {
              "internalType": "uint32",
              "name": "merkleIndex",
              "type": "uint32"
            },
            {
              "internalType": "bytes",
              "name": "merkleProof",
              "type": "bytes"
            },
            {
              "internalType": "uint32",
              "name": "version",
              "type": "uint32"
            },
            {
              "internalType": "uint32",
              "name": "locktime",
              "type": "uint32"
            },
            {
              "internalType": "bytes",
              "name": "vin",
              "type": "bytes"
            },
            {
              "internalType": "bytes",
              "name": "vout",
              "type": "bytes"
            }
          ],
          "internalType": "struct PoR.ParamBounty[]",
          "name": "bounty",
          "type": "tuple[]"
        }
      ],
      "name": "submit",
      "outputs": [],
      "stateMutability": "nonpayable",
      "type": "function"
    }
  ],
  "bytecode": "0x6101406040526000608081905260a081905260c081905260e0819052631dcd65006101008190526103e86101205260018290556002919091556003805463ffffffff191690911763ffffffff166503e80000000017905534801561006257600080fd5b50614b1b806100726000396000f3fe60806040526004361061002d5760003560e01c8063f4b0bafa14610072578063f9fcd029146100945761006d565b3661006d576040517f08c379a000000000000000000000000000000000000000000000000000000000815260040161006490614747565b60405180910390fd5b600080fd5b34801561007e57600080fd5b5061009261008d366004613f36565b6100b4565b005b3480156100a057600080fd5b506100926100af366004613f1e565b611e1e565b600061016261015d876020810180357fffffffffffffffffffffffffffffffffffffffffffffffffffffffffffffffe1368490030181126100f457600080fd5b9091016020810191503567ffffffffffffffff81111561011357600080fd5b3681900382131561012357600080fd5b8080601f0160208091040260200160405190810160405280939291908181526020018383808284376000920191909152506120db92505050565b6121be565b9050600060608315610f225761025e8585600081811061017e57fe5b6020028201905080357fffffffffffffffffffffffffffffffffffffffffffffffffffffffffffffff21368490030181126101b857600080fd5b91909101905060c0810180357fffffffffffffffffffffffffffffffffffffffffffffffffffffffffffffffe1368490030181126101f557600080fd5b9091016020810191503567ffffffffffffffff81111561021457600080fd5b3681900382131561022457600080fd5b8080601f0160208091040260200160405190810160405280939291908181526020018383808284376000920191909152506122ff92505050565b5115610296576040517f08c379a0000000000000000000000000000000000000000000000000000000008152600401610064906146b3565b6000806060806103408c60c0810180357fffffffffffffffffffffffffffffffffffffffffffffffffffffffffffffffe1368490030181126102d757600080fd5b9091016020810191503567ffffffffffffffff8111156102f657600080fd5b3681900382131561030657600080fd5b8080601f0160208091040260200160405190810160405280939291908181526020018383808284376000920191909152506124a892505050565b815192955090935091508a14610382576040517f08c379a00000000000000000000000000000000000000000000000000000000081526004016100649061485a565b60005b82518110156107a55761062f8c8c8381811061039d57fe5b6020028201905080357fffffffffffffffffffffffffffffffffffffffffffffffffffffffffffffff61368490030181126103d757600080fd5b6103e79201602081019150613fce565b8d8d848181106103f357fe5b6020028201905080357fffffffffffffffffffffffffffffffffffffffffffffffffffffffffffffff613684900301811261042d57600080fd5b9190910190506040810180357fffffffffffffffffffffffffffffffffffffffffffffffffffffffffffffffe13684900301811261046a57600080fd5b9091016020810191503567ffffffffffffffff81111561048957600080fd5b3681900382131561049957600080fd5b8080601f016020809104026020016040519081016040528093929190818152602001838380828437600081840152601f19601f820116905080830192505050505050508e8e858181106104e857fe5b6020028201905080357fffffffffffffffffffffffffffffffffffffffffffffffffffffffffffffff613684900301811261052257600080fd5b9190910190506060810180357fffffffffffffffffffffffffffffffffffffffffffffffffffffffffffffffe13684900301811261055f57600080fd5b9091016020810191503567ffffffffffffffff81111561057e57600080fd5b3681900382131561058e57600080fd5b8080601f016020809104026020016040519081016040528093929190818152602001838380828437600081840152601f19601f820116905080830192505050505050508f8f868181106105dd57fe5b6020028201905080357fffffffffffffffffffffffffffffffffffffffffffffffffffffffffffffff613684900301811261061757600080fd5b61062a9201604081019150602001613fce565b612677565b83828151811061063b57fe5b60200260200101511461067a576040517f08c379a00000000000000000000000000000000000000000000000000000000081526004016100649061460e565b61078e61078983838151811061068c57fe5b60200260200101518e8e858181106106a057fe5b6020028201905080357fffffffffffffffffffffffffffffffffffffffffffffffffffffffffffffff61368490030181126106da57600080fd5b9190910190506060810180357fffffffffffffffffffffffffffffffffffffffffffffffffffffffffffffffe13684900301811261071757600080fd5b9091016020810191503567ffffffffffffffff81111561073657600080fd5b3681900382131561074657600080fd5b8080601f016020809104026020016040519081016040528093929190818152602001838380828437600092019190915250929392505063ffffffff6126b2169050565b6128a0565b67ffffffffffffffff169490940193600101610385565b506000610a4b8a8a60008181106107b857fe5b6020028201905080357fffffffffffffffffffffffffffffffffffffffffffffffffffffffffffffff21368490030181126107f257600080fd5b6108059201608081019150606001613fce565b8b8b600081811061081257fe5b6020028201905080357fffffffffffffffffffffffffffffffffffffffffffffffffffffffffffffff213684900301811261084c57600080fd5b91909101905060a0810180357fffffffffffffffffffffffffffffffffffffffffffffffffffffffffffffffe13684900301811261088957600080fd5b9091016020810191503567ffffffffffffffff8111156108a857600080fd5b368190038213156108b857600080fd5b8080601f016020809104026020016040519081016040528093929190818152602001838380828437600081840152601f19601f820116905080830192505050505050508c8c600081811061090857fe5b6020028201905080357fffffffffffffffffffffffffffffffffffffffffffffffffffffffffffffff213684900301811261094257600080fd5b91909101905060c0810180357fffffffffffffffffffffffffffffffffffffffffffffffffffffffffffffffe13684900301811261097f57600080fd5b9091016020810191503567ffffffffffffffff81111561099e57600080fd5b368190038213156109ae57600080fd5b8080601f016020809104026020016040519081016040528093929190818152602001838380828437600081840152601f19601f820116905080830192505050505050508d8d60008181106109fe57fe5b6020028201905080357fffffffffffffffffffffffffffffffffffffffffffffffffffffffffffffff2136849003018112610a3857600080fd5b61062a920160a081019150608001613fce565b9050602083600081518110610a5c57fe5b602002602001015182604051602001610a7692919061403d565b6040516020818303038152906040528051906020012060001c81610a9657fe5b0615610ace576040517f08c379a0000000000000000000000000000000000000000000000000000000008152600401610064906148c6565b610d2281610bc7610bc28d8d6000818110610ae557fe5b6020028201905080357fffffffffffffffffffffffffffffffffffffffffffffffffffffffffffffff2136849003018112610b1f57600080fd5b9190910190508080357fffffffffffffffffffffffffffffffffffffffffffffffffffffffffffffffe136839003018112610b5957600080fd5b9091016020810191503567ffffffffffffffff811115610b7857600080fd5b36819003821315610b8857600080fd5b8080601f0160208091040260200160405190810160405280939291908181526020018383808284376000920191909152506128c592505050565b6128da565b8c8c6000818110610bd457fe5b6020028201905080357fffffffffffffffffffffffffffffffffffffffffffffffffffffffffffffff2136849003018112610c0e57600080fd5b9190910190506040810180357fffffffffffffffffffffffffffffffffffffffffffffffffffffffffffffffe136849003018112610c4b57600080fd5b9091016020810191503567ffffffffffffffff811115610c6a57600080fd5b36819003821315610c7a57600080fd5b8080601f016020809104026020016040519081016040528093929190818152602001838380828437600081840152601f19601f820116905080830192505050505050508d8d6000818110610cca57fe5b6020028201905080357fffffffffffffffffffffffffffffffffffffffffffffffffffffffffffffff2136849003018112610d0457600080fd5b610d179201604081019150602001613fce565b63ffffffff166128f6565b610d58576040517f08c379a000000000000000000000000000000000000000000000000000000000815260040161006490614569565b505050610ef58a8060c00180356001602003833603038112610d7957600080fd5b9091016020810191503567ffffffffffffffff811115610d9857600080fd5b36819003821315610da857600080fd5b9050610e5a610e557fffffffffffffffffffffffffffffffffffffffffffffffffffffffffffffffff8b8b6000818110610dde57fe5b6020028201905080357fffffffffffffffffffffffffffffffffffffffffffffffffffffffffffffff2136849003018112610e1857600080fd5b91909101905060c0810180357fffffffffffffffffffffffffffffffffffffffffffffffffffffffffffffffe13684900301811261071757600080fd5b61297e565b805190602001208484898f8060e00180356001602003833603038112610e7f57600080fd5b9091016020810191503567ffffffffffffffff811115610e9e57600080fd5b36819003821315610eae57600080fd5b8080601f01602080910402602001604051908101604052809392919081815260200183838082843760009201919091525092979695949392505063ffffffff6129b2169050565b7e020000000000000000000000000000000000000000000000000000000000000294509250610f82915050565b610f5d8860e0810180357fffffffffffffffffffffffffffffffffffffffffffffffffffffffffffffffe1368490030181126101f557600080fd5b90507e0100000000000000000000000000000000000000000000000000000000000091505b600080610f976101208b016101008c01613fce565b63ffffffff169050606061104f828c60c0810180357fffffffffffffffffffffffffffffffffffffffffffffffffffffffffffffffe136849003018112610fdd57600080fd5b9091016020810191503567ffffffffffffffff811115610ffc57600080fd5b3681900382131561100c57600080fd5b8080601f016020809104026020016040519081016040528093929190818152602001838380828437600092019190915250929392505063ffffffff612d2b169050565b905060006110656101608d016101408e01613fce565b63ffffffff1611156110a7576110a0610bc26110896101608e016101408f01613fce565b839060260163ffffffff90811690602090612eee16565b9250611582565b604a81511015801561112f5750805181907fffffffffffffffffffffffffffffffffffffffffffffffffffffffffffffffda81019081106110e457fe5b6020910101517fff00000000000000000000000000000000000000000000000000000000000000167f2100000000000000000000000000000000000000000000000000000000000000145b1561116f5780516110a090610bc29083907fffffffffffffffffffffffffffffffffffffffffffffffffffffffffffffffdc01602063ffffffff612eee16565b60405161117b90614114565b604051908190039020611197826024600463ffffffff612f9716565b14156111dc576111b3610bc2826028601463ffffffff612eee16565b7fffffffffffffffffffffffffffffffffffffffff000000000000000000000000169250611582565b88611213576040517f08c379a00000000000000000000000000000000000000000000000000000000081526004016100649061496b565b866114b657600061146d8b8b600081811061122a57fe5b6020028201905080357fffffffffffffffffffffffffffffffffffffffffffffffffffffffffffffff613684900301811261126457600080fd5b6112749201602081019150613fce565b8c8c600081811061128157fe5b6020028201905080357fffffffffffffffffffffffffffffffffffffffffffffffffffffffffffffff61368490030181126112bb57600080fd5b9190910190506040810180357fffffffffffffffffffffffffffffffffffffffffffffffffffffffffffffffe1368490030181126112f857600080fd5b9091016020810191503567ffffffffffffffff81111561131757600080fd5b3681900382131561132757600080fd5b8080601f016020809104026020016040519081016040528093929190818152602001838380828437600081840152601f19601f820116905080830192505050505050508d8d600081811061137757fe5b6020028201905080357fffffffffffffffffffffffffffffffffffffffffffffffffffffffffffffff61368490030181126113b157600080fd5b9190910190506060810180357fffffffffffffffffffffffffffffffffffffffffffffffffffffffffffffffe1368490030181126113ee57600080fd5b9091016020810191503567ffffffffffffffff81111561140d57600080fd5b3681900382131561141d57600080fd5b8080601f016020809104026020016040519081016040528093929190818152602001838380828437600081840152601f19601f820116905080830192505050505050508e8e60008181106105dd57fe5b905061147882612fed565b81146114b0576040517f08c379a000000000000000000000000000000000000000000000000000000000815260040161006490614934565b60009250505b60006114da60006114ce6114c985613004565b613019565b9063ffffffff6130be16565b63ffffffff16905060606114f4828d8d878181106106a057fe5b905061155b610bc2828e8e8881811061150957fe5b6020028201905080357fffffffffffffffffffffffffffffffffffffffffffffffffffffffffffffff613684900301811261154357600080fd5b611556920160a081019150608001613fce565b613114565b7fffffffffffffffffffffffffffffffffffffffff00000000000000000000000016945050505b505060008061160e8b80602001803560016020038336030381126115a557600080fd5b9091016020810191503567ffffffffffffffff8111156115c457600080fd5b368190038213156115d457600080fd5b8080601f01602080910402602001604051908101604052809392919081815260200183838082843760009201919091525061318792505050565b9050861561178157600061169c8989600081811061162857fe5b6020028201905080357fffffffffffffffffffffffffffffffffffffffffffffffffffffffffffffff213684900301811261166257600080fd5b9190910190508080357fffffffffffffffffffffffffffffffffffffffffffffffffffffffffffffffe1368390030181126115a557600080fd5b90508061172661015d8b8b60008181106116b257fe5b6020028201905080357fffffffffffffffffffffffffffffffffffffffffffffffffffffffffffffff21368490030181126116ec57600080fd5b9190910190508080357fffffffffffffffffffffffffffffffffffffffffffffffffffffffffffffffe1368390030181126100f457600080fd5b111561175e576040517f08c379a000000000000000000000000000000000000000000000000000000000815260040161006490614430565b81818161176757fe5b0490506002811061177f5780868161177b57fe5b0495505b505b60006117a6858d61012001602061179b9190810190613fce565b63ffffffff16613203565b909350905060018111156117c1578082816117bd57fe5b0491505b818711156117fb576040517f08c379a00000000000000000000000000000000000000000000000000000000081526004016100649061477e565b81868161180457fe5b60008981526006602090815260408083208884529091528120929091049750909250905061198561183b60a08e0160808f01613fce565b8d60c0810180357fffffffffffffffffffffffffffffffffffffffffffffffffffffffffffffffe13684900301811261187357600080fd5b9091016020810191503567ffffffffffffffff81111561189257600080fd5b368190038213156118a257600080fd5b8080601f016020809104026020016040519081016040528093929190818152602001838380828437600081840152601f19601f820116905080830192505050505050508e8060e0018035600160200383360303811261190057600080fd5b9091016020810191503567ffffffffffffffff81111561191f57600080fd5b3681900382131561192f57600080fd5b8080601f016020809104026020016040519081016040528093929190818152602001838380828437600081840152601f19601f820116905080830192505050505050508f60a001602061062a9190810190613fce565b9050611a86816119c9610bc28f6020810180357fffffffffffffffffffffffffffffffffffffffffffffffffffffffffffffffe136849003018112610b5957600080fd5b8e6060810180357fffffffffffffffffffffffffffffffffffffffffffffffffffffffffffffffe136849003018112611a0157600080fd5b9091016020810191503567ffffffffffffffff811115611a2057600080fd5b36819003821315611a3057600080fd5b8080601f016020809104026020016040519081016040528093929190818152602001838380828437600081840152601f19601f820116905080830192505050505050508f6040016020610d179190810190613fce565b611abc576040517f08c379a0000000000000000000000000000000000000000000000000000000008152600401610064906143f9565b60008782604051602001611ad192919061403d565b604080517fffffffffffffffffffffffffffffffffffffffffffffffffffffffffffffffe08184030181529190528051602090910120835460e09190911c915063ffffffff1615611b6057825463ffffffff90811690821610611b60576040517f08c379a00000000000000000000000000000000000000000000000000000000081526004016100649061432e565b82547fffffffffffffffffffffffffffffffffffffffffffffffffffffffff000000001663ffffffff91909116178255506000611c378c602081018035368390037fffffffffffffffffffffffffffffffffffffffffffffffffffffffffffffffe1018112611bce57600080fd5b9091016020810191503567ffffffffffffffff811115611bed57600080fd5b36819003821315611bfd57600080fd5b8080601f01602080910402602001604051908101604052809392919081815260200183838082843760009201919091525061338792505050565b63ffffffff169050611c4881613398565b611c7e576040517f08c379a0000000000000000000000000000000000000000000000000000000008152600401610064906145a0565b8715611d4b57610e10611d0b8a8a6000818110611c9757fe5b6020028201905080357fffffffffffffffffffffffffffffffffffffffffffffffffffffffffffffff2136849003018112611cd157600080fd5b9190910190508080357fffffffffffffffffffffffffffffffffffffffffffffffffffffffffffffffe136839003018112611bce57600080fd5b63ffffffff1682031115611d4b576040517f08c379a00000000000000000000000000000000000000000000000000000000081526004016100649061488f565b6000611d5a60208e018e613eb2565b90506000611d6985838a6133ad565b905081818488604051602001611d829493929190613ff2565b604080517fffffffffffffffffffffffffffffffffffffffffffffffffffffffffffffffe08184030181529082905280516020918201208654911c6401000000000263ffffffff909116178555869086908b907f130309f7872b5a2da44e7e40cd7d3105d740c88a887e785e6c586a4e158b0b4490611e0690879087908a9061427a565b60405180910390a45050505050505050505050505050565b611e2c816101000135613398565b15611e63576040517f08c379a00000000000000000000000000000000000000000000000000000000081526004016100649061449e565b80356000908152600660209081526040808320828501358452909152812090611e926080840160608501613ee6565b15611ed257611ea98360a001358460c0013561347b565b7fffffffffffffffffffffffffffffffffffffffff000000000000000000000000169050611ed9565b5060a08201355b611ee96060840160408501613eb2565b8360e0013584610100013583604051602001611f089493929190613ff2565b604080517fffffffffffffffffffffffffffffffffffffffffffffffffffffffffffffffe081840301815291905280516020918201208354640100000000900490911b7fffffffffffffffffffffffffffffffffffffffffffffffffffffffff00000000908116911614611fa8576040517f08c379a0000000000000000000000000000000000000000000000000000000008152600401610064906148fd565b6000611fdc8460a001358560c00135604051602001611fc892919061403d565b604051602081830303815290604052613584565b905073ffffffffffffffffffffffffffffffffffffffff8116331461202d576040517f08c379a000000000000000000000000000000000000000000000000000000000815260040161006490614a7e565b306309812fe2826120446060880160408901613eb2565b60e08801356020890135893561206060a08c0160808d01613ee6565b6040518763ffffffff1660e01b815260040161208196959493929190614237565b600060405180830381600087803b15801561209b57600080fd5b505af11580156120af573d6000803e3d6000fd5b505050843560009081526006602090815260408083209782013583529690529485209490945550505050565b6000600280836040516120ee9190614078565b602060405180830381855afa15801561210b573d6000803e3d6000fd5b5050506040513d601f19601f8201168201806040525061212e9190810190613f06565b60405160200161213e9190614034565b604080517fffffffffffffffffffffffffffffffffffffffffffffffffffffffffffffffe08184030181529082905261217691614078565b602060405180830381855afa158015612193573d6000803e3d6000fd5b5050506040513d601f19601f820116820180604052506121b69190810190613f06565b90505b919050565b600881811c7eff00ff00ff00ff00ff00ff00ff00ff00ff00ff00ff00ff00ff00ff00ff00ff167fff00ff00ff00ff00ff00ff00ff00ff00ff00ff00ff00ff00ff00ff00ff00ff009290911b9190911617601081811c7dffff0000ffff0000ffff0000ffff0000ffff0000ffff0000ffff0000ffff167fffff0000ffff0000ffff0000ffff0000ffff0000ffff0000ffff0000ffff00009290911b9190911617602081811c7bffffffff00000000ffffffff00000000ffffffff00000000ffffffff167fffffffff00000000ffffffff00000000ffffffff00000000ffffffff000000009290911b9190911617604081811c77ffffffffffffffff0000000000000000ffffffffffffffff167fffffffffffffffff0000000000000000ffffffffffffffff00000000000000009290911b9190911617608081811c91901b1790565b606060008061230d846135cd565b915091507fffffffffffffffffffffffffffffffffffffffffffffffffffffffffffffffff82141561236b576040517f08c379a0000000000000000000000000000000000000000000000000000000008152600401610064906144d5565b60606001830160005b8381101561249e57612394828389510389612eee9092919063ffffffff16565b9250826009815181106123a357fe5b6020910101517fff00000000000000000000000000000000000000000000000000000000000000167f6a00000000000000000000000000000000000000000000000000000000000000141561242a57600083600a8151811061240157fe5b016020015160f81c905061241d84600b8363ffffffff612eee16565b96505050505050506121b9565b600061243584613672565b90507fffffffffffffffffffffffffffffffffffffffffffffffffffffffffffffffff811415612491576040517f08c379a000000000000000000000000000000000000000000000000000000000815260040161006490614532565b9190910190600101612374565b5050505050919050565b60006060806000806124b9866135cd565b90925090507fffffffffffffffffffffffffffffffffffffffffffffffffffffffffffffffff821415612518576040517f08c379a0000000000000000000000000000000000000000000000000000000008152600401610064906144d5565b604080518281526020808402820101909152606090600090600185019084801561254c578160200160208202803883390190505b50965083604051908082528060200260200182016040528015612579578160200160208202803883390190505b50955060005b8481101561266a5761259f82838c51038c612eee9092919063ffffffff16565b93506125aa84613732565b92507fffffffffffffffffffffffffffffffffffffffffffffffffffffffffffffffff831415612606576040517f08c379a0000000000000000000000000000000000000000000000000000000008152600401610064906145d7565b8061260f578298505b9082019061261c84612fed565b88828151811061262857fe5b60200260200101818152505061264560006114ce6114c987613004565b63ffffffff1687828151811061265757fe5b602090810291909101015260010161257f565b5050505050509193909250565b60006126a785858585604051602001612693949392919061418f565b6040516020818303038152906040526120db565b90505b949350505050565b60606000806126c0856135cd565b90925090507fffffffffffffffffffffffffffffffffffffffffffffffffffffffffffffffff82141561271f576040517f08c379a0000000000000000000000000000000000000000000000000000000008152600401610064906144d5565b80841061272b57928301925b808410612764576040517f08c379a0000000000000000000000000000000000000000000000000000000008152600401610064906149a2565b6060600060018401815b878110156128015761278e82838b51038b612eee9092919063ffffffff16565b935061279984613672565b92507fffffffffffffffffffffffffffffffffffffffffffffffffffffffffffffffff8314156127f5576040517f08c379a000000000000000000000000000000000000000000000000000000000815260040161006490614532565b9082019060010161276e565b5061281a81828a51038a612eee9092919063ffffffff16565b925061282583613672565b91507fffffffffffffffffffffffffffffffffffffffffffffffffffffffffffffffff821415612881576040517f08c379a000000000000000000000000000000000000000000000000000000000815260040161006490614532565b61289288828463ffffffff612eee16565b955050505050505b92915050565b600060606128ad836137a1565b905060606128ba82613019565b90506126aa816137b6565b60606121b6826024602063ffffffff612eee16565b60008151600014156128ee575060006121b9565b506020015190565b60008385148015612905575081155b801561291057508251155b1561291d575060016126aa565b60608584866040516020016129349392919061404b565b604080517fffffffffffffffffffffffffffffffffffffffffffffffffffffffffffffffe08184030181529190529050612974818463ffffffff6137f316565b9695505050505050565b606060008260088151811061298f57fe5b016020015160f81c90506129ab8360098363ffffffff612eee16565b9392505050565b85519490940160080193600a9190910190606060007fffffffffffffffffffffffffffffffffffffffffffffffffffffffffffffffff81806129f38b6135cd565b915091507fffffffffffffffffffffffffffffffffffffffffffffffffffffffffffffffff821415612a51576040517f08c379a0000000000000000000000000000000000000000000000000000000008152600401610064906144d5565b60028111612a8b576040517f08c379a000000000000000000000000000000000000000000000000000000000815260040161006490614a10565b60019091019060005b81811015612cde57612ab483848e51038e612eee9092919063ffffffff16565b9b50612abf8c613672565b92507fffffffffffffffffffffffffffffffffffffffffffffffffffffffffffffffff831415612b1b576040517f08c379a000000000000000000000000000000000000000000000000000000000815260040161006490614532565b6000612b268d6128a0565b67ffffffffffffffff16998a900399905085612c1c578c600981518110612b4957fe5b6020910101517fff00000000000000000000000000000000000000000000000000000000000000167f6a000000000000000000000000000000000000000000000000000000000000001415612c175781600284030395506008861115612bdb576040517f08c379a0000000000000000000000000000000000000000000000000000000008152600401610064906147ec565b81868981612be557fe5b06016001019750612c14600b8e600a81518110612bfe57fe5b01602001518f919060f81c63ffffffff612eee16565b96505b612cd5565b60018303821015612cd55784811015612c33578094505b87821415612c8c57612c448d61297e565b805190602001208b14612c83576040517f08c379a0000000000000000000000000000000000000000000000000000000008152600401610064906142f9565b97830197612cd5565b612c958d61297e565b805190602001208b1415612cd5576040517f08c379a000000000000000000000000000000000000000000000000000000000815260040161006490614a47565b50600101612a94565b508983028789021115612d1d576040517f08c379a00000000000000000000000000000000000000000000000000000000081526004016100649061467c565b505050965096945050505050565b6060600080612d39856135cd565b90925090507fffffffffffffffffffffffffffffffffffffffffffffffffffffffffffffffff821415612d98576040517f08c379a0000000000000000000000000000000000000000000000000000000008152600401610064906144d5565b808410612dd1576040517f08c379a000000000000000000000000000000000000000000000000000000000815260040161006490614823565b6060600060018401815b87811015612e6e57612dfb82838b51038b612eee9092919063ffffffff16565b9350612e0684613732565b92507fffffffffffffffffffffffffffffffffffffffffffffffffffffffffffffffff831415612e62576040517f08c379a0000000000000000000000000000000000000000000000000000000008152600401610064906145d7565b90820190600101612ddb565b50612e8781828a51038a612eee9092919063ffffffff16565b9250612e9283613732565b91507fffffffffffffffffffffffffffffffffffffffffffffffffffffffffffffffff821415612881576040517f08c379a0000000000000000000000000000000000000000000000000000000008152600401610064906145d7565b606081612f0a57506040805160208101909152600081526129ab565b8282018381118015612f1d575080855110155b612f53576040517f08c379a0000000000000000000000000000000000000000000000000000000008152600401610064906149d9565b604051915082604083010160405282825283850182038460208701018481015b80821015612f8c57815183830152602082019150612f73565b505050509392505050565b60008282018381118015612fac575080855110155b612fe2576040517f08c379a0000000000000000000000000000000000000000000000000000000008152600401610064906149d9565b505091016020012090565b60006121b6610bc28383602063ffffffff612eee16565b60606121b6826020600463ffffffff612eee16565b60608082516040519080825280601f01601f191660200182016040528015613048576020820181803883390190505b50905060005b83518110156130b75783818151811061306357fe5b602001015160f81c60f81b82600183875103038151811061308057fe5b60200101907effffffffffffffffffffffffffffffffffffffffffffffffffffffffffffff1916908160001a90535060010161304e565b5092915050565b60006004820182811180156130d4575080845110155b61310a576040517f08c379a0000000000000000000000000000000000000000000000000000000008152600401610064906147b5565b5050016004015190565b606063ffffffff82161561313f576131388363ffffffff80851690601490612eee16565b905061289a565b606061314a84613973565b905080516014146129ab576040517f08c379a0000000000000000000000000000000000000000000000000000000008152600401610064906143c2565b6000606061319e836048600363ffffffff612eee16565b9050600083604b815181106131af57fe5b016020015160f81c905060006131cc6131c784613019565b6137b6565b7ffffffffffffffffffffffffffffffffffffffffffffffffffffffffffffffffd9290920160ff166101000a909102949350505050565b6000806000845111613241576040517f08c379a000000000000000000000000000000000000000000000000000000000815260040161006490614710565b82613256575050815160208301206001613380565b8284511015613291576040517f08c379a000000000000000000000000000000000000000000000000000000000815260040161006490614467565b6132a38460008563ffffffff612f9716565b915082600201845111801561330a57508383815181106132bf57fe5b6020910101517fff00000000000000000000000000000000000000000000000000000000000000167f2000000000000000000000000000000000000000000000000000000000000000145b801561336b575083836001018151811061332057fe5b6020910101517fff00000000000000000000000000000000000000000000000000000000000000167f7800000000000000000000000000000000000000000000000000000000000000145b156133805761337d8484600201613bd3565b90505b9250929050565b60006121b66131c76114c984613c45565b6000610e106133a683613c5a565b1092915050565b60006040516133bb906140c2565b60405180910390208414156133d15750806129ab565b600084815260046020908152604080832073ffffffffffffffffffffffffffffffffffffffff871684529091529020600181015477ffffffffffffffffffffffffffffffffffffffffffffffff1680613456576040517f08c379a000000000000000000000000000000000000000000000000000000000815260040161006490614645565b670de0b6b3a76400006134698286613c6d565b8161347057fe5b049695505050505050565b60008060018084161461348f576002613492565b60035b9050606081856040516020016134a9929190614202565b604051602081830303815290604052905060036002826040516134cc9190614078565b602060405180830381855afa1580156134e9573d6000803e3d6000fd5b5050506040513d601f19601f8201168201806040525061350c9190810190613f06565b60405160200161351c9190614034565b604080517fffffffffffffffffffffffffffffffffffffffffffffffffffffffffffffffe08184030181529082905261355491614078565b602060405180830381855afa158015613571573d6000803e3d6000fd5b50506040515160601b9695505050505050565b600081516040146135c1576040517f08c379a000000000000000000000000000000000000000000000000000000000815260040161006490614365565b50805160209091012090565b60008060006135db84613cc0565b905060ff8116613608576000846000815181106135f457fe5b016020015190935060f81c915061366d9050565b8060010160ff168451101561364457507fffffffffffffffffffffffffffffffffffffffffffffffffffffffffffffffff91506000905061366d565b60006136616131c76114c987600160ff871663ffffffff612eee16565b60ff9092169350909150505b915091565b60006009825110156136a557507fffffffffffffffffffffffffffffffffffffffffffffffffffffffffffffffff6121b9565b60606136c060088085510385612eee9092919063ffffffff16565b90506000806136ce836135cd565b90925090507fffffffffffffffffffffffffffffffffffffffffffffffffffffffffffffffff821415613726577fffffffffffffffffffffffffffffffffffffffffffffffffffffffffffffffff93505050506121b9565b01600901915050919050565b600080600061374084613d3c565b90925090507fffffffffffffffffffffffffffffffffffffffffffffffffffffffffffffffff821415613797577fffffffffffffffffffffffffffffffffffffffffffffffffffffffffffffffff925050506121b9565b0160290192915050565b60606121b6826000600863ffffffff612eee16565b600080805b83518110156130b7578060010184510360080260020a8482815181106137dd57fe5b016020015160f81c0291909101906001016137bb565b6000602083518161380057fe5b061561380e5750600061289a565b8251602014156138205750600161289a565b8251604014156138325750600061289a565b8251829060009061387290610bc29087907fffffffffffffffffffffffffffffffffffffffffffffffffffffffffffffffe001602063ffffffff612eee16565b9050600061388b610bc28783602063ffffffff612eee16565b905060015b86516001906138a690602063ffffffff613daa16565b038110156139695760028406600114156138fe576138f76138d28860208085029063ffffffff612eee16565b836040516020016138e39190614034565b604051602081830303815290604052613dec565b915061395d565b61395a826040516020016139129190614034565b604080517fffffffffffffffffffffffffffffffffffffffffffffffffffffffffffffffe08184030181529190526139558960208581029063ffffffff612eee16565b613dec565b91505b600193841c9301613890565b5014949350505050565b606060008260088151811061398457fe5b0160200151835160f89190911c91506009820160ff16146139b55750506040805160208101909152600081526121b9565b826009815181106139c257fe5b016020015160f81c613a835760028160ff1610156139f05750506040805160208101909152600081526121b9565b600083600a815181106139ff57fe5b016020015160f81c90507ffffffffffffffffffffffffffffffffffffffffffffffffffffffffffffffffe820160ff1681141580613a4a575080602014158015613a4a575080601414155b15613a685760405180602001604052806000815250925050506121b9565b613a7a84600b8363ffffffff612eee16565b925050506121b9565b6000613a98846008600363ffffffff612f9716565b9050604051613aa690614166565b6040518091039020811415613b555783600b81518110613ac257fe5b60209101015160f81c6014141580613b245750604051613ae1906140eb565b6040519081900390208451613b219086907ffffffffffffffffffffffffffffffffffffffffffffffffffffffffffffffffe01600263ffffffff612f9716565b14155b15613b425760405180602001604052806000815250925050506121b9565b613a7a84600c601463ffffffff612eee16565b604051613b619061413d565b6040518091039020811415613bbc5783600185510381518110613b8057fe5b60209101015160f81c608714613ba95760405180602001604052806000815250925050506121b9565b613a7a84600b601463ffffffff612eee16565b505050604080516020810190915260008152919050565b6000815b83518110156130b7576000848281518110613bee57fe5b016020015160f81c90506030811080613c075750603981115b15613c1257506130b7565b600a9092029091017fffffffffffffffffffffffffffffffffffffffffffffffffffffffffffffffd00190600101613bd7565b60606121b6826044600463ffffffff612eee16565b60006121b6613c67613e04565b83613e08565b600082613c7c5750600061289a565b82820282848281613c8957fe5b041415613c9757905061289a565b507fffffffffffffffffffffffffffffffffffffffffffffffffffffffffffffffff9392505050565b600081600081518110613ccf57fe5b60209101015160f81c60ff1415613ce8575060086121b9565b81600081518110613cf557fe5b60209101015160f81c60fe1415613d0e575060046121b9565b81600081518110613d1b57fe5b60209101015160f81c60fd1415613d34575060026121b9565b506000919050565b600080602583511015613d7457507fffffffffffffffffffffffffffffffffffffffffffffffffffffffffffffffff9050600061366d565b6060613d8f60248086510386612eee9092919063ffffffff16565b9050600080613d9d836135cd565b9095509350505050915091565b60006129ab83836040518060400160405280601a81526020017f536166654d6174683a206469766973696f6e206279207a65726f000000000000815250613e1f565b60006129ab8383604051602001612693929190614094565b4290565b6000818311613e195750600061289a565b50900390565b60008183613e5a576040517f08c379a000000000000000000000000000000000000000000000000000000000815260040161006491906142a8565b506000838581613e6657fe5b0495945050505050565b60008083601f840112613e81578182fd5b50813567ffffffffffffffff811115613e98578182fd5b602083019150836020808302850101111561338057600080fd5b600060208284031215613ec3578081fd5b813573ffffffffffffffffffffffffffffffffffffffff811681146129ab578182fd5b600060208284031215613ef7578081fd5b813580151581146129ab578182fd5b600060208284031215613f17578081fd5b5051919050565b60006101208284031215613f30578081fd5b50919050565b600080600080600060608688031215613f4d578081fd5b853567ffffffffffffffff80821115613f64578283fd5b818801610160818b031215613f77578384fd5b96506020880135915080821115613f8c578283fd5b613f9889838a01613e70565b90965094506040880135915080821115613fb0578283fd5b50613fbd88828901613e70565b969995985093965092949392505050565b600060208284031215613fdf578081fd5b813563ffffffff811681146129ab578182fd5b60609490941b7fffffffffffffffffffffffffffffffffffffffff00000000000000000000000016845260148401929092526034830152605482015260740190565b90815260200190565b918252602082015260400190565b60008482528351614063816020850160208801614ab5565b60209201918201929092526040019392505050565b6000825161408a818460208701614ab5565b9190910192915050565b600083516140a6818460208801614ab5565b83519083016140b9828260208801614ab5565b01949350505050565b7f656e6475722e696f000000000000000000000000000000000000000000000000815260080190565b7f88ac000000000000000000000000000000000000000000000000000000000000815260020190565b7f1716001400000000000000000000000000000000000000000000000000000000815260040190565b7f17a9140000000000000000000000000000000000000000000000000000000000815260030190565b7f1976a90000000000000000000000000000000000000000000000000000000000815260030190565b60007fffffffff00000000000000000000000000000000000000000000000000000000808760e01b16835285516141cd816004860160208a01614ab5565b85519084016141e3826004830160208a01614ab5565b60e09590951b9091166004949091019384015250506008019392505050565b60f89290921b7fff00000000000000000000000000000000000000000000000000000000000000168252600182015260210190565b73ffffffffffffffffffffffffffffffffffffffff968716815294909516602085015260408401929092526060830152608082015290151560a082015260c00190565b73ffffffffffffffffffffffffffffffffffffffff9390931683526020830191909152604082015260600190565b60006020825282518060208401526142c7816040850160208701614ab5565b601f017fffffffffffffffffffffffffffffffffffffffffffffffffffffffffffffffe0169190910160400192915050565b6020808252818101527f626f756e74793a2073616d706c696e6720736372697074206d69736d61746368604082015260600190565b60208082526005908201527f74616b656e000000000000000000000000000000000000000000000000000000604082015260600190565b6020808252602d908201527f5075626b6579206d7573742062652036342d62797465207261772c20756e636f60408201527f6d70726573736564206b65792e00000000000000000000000000000000000000606082015260800190565b6020808252601b908201527f756e737570706f7274656420504b4820696e206f7574706f696e740000000000604082015260600190565b60208082526014908201527f696e76616c6964206d65726b6c652070726f6f66000000000000000000000000604082015260600190565b60208082526019908201527f626f756e74793a20696e73756666696369656e7420776f726b00000000000000604082015260600190565b60208082526010908201527f4f4f423a206d656d6f206c656e67746800000000000000000000000000000000604082015260600190565b60208082526008908201527f746f6f20736f6f6e000000000000000000000000000000000000000000000000604082015260600190565b60208082526022908201527f52656164206f76657272756e20647572696e6720566172496e7420706172736960408201527f6e67000000000000000000000000000000000000000000000000000000000000606082015260800190565b6020808252601a908201527f42616420566172496e7420696e207363726970745075626b6579000000000000604082015260600190565b6020808252601c908201527f626f756e74793a20696e76616c6964206d65726b6c652070726f6f6600000000604082015260600190565b60208082526014908201527f7375626d697474696e672074696d65206f766572000000000000000000000000604082015260600190565b60208082526017908201527f42616420566172496e7420696e20736372697074536967000000000000000000604082015260600190565b60208082526017908201527f626f756e74793a20696e70757473206d69736d61746368000000000000000000604082015260600190565b60208082526010908201527f6272616e64206e6f742061637469766500000000000000000000000000000000604082015260600190565b60208082526013908201527f626f756e74793a2064757374206f757470757400000000000000000000000000604082015260600190565b60208082526025908201527f626f756e74793a2073616d706c696e6720726563697069656e7420686173204f60408201527f505f524554000000000000000000000000000000000000000000000000000000606082015260800190565b60208082526007908201527f214f505f52455400000000000000000000000000000000000000000000000000604082015260600190565b6020808252600a908201527f4e6f207468616e6b732100000000000000000000000000000000000000000000604082015260600190565b60208082526011908201527f696e73756666696369656e7420776f726b000000000000000000000000000000604082015260600190565b6020808252601e908201527f55696e7420636f6e76657273696f6e206f7574206f6620626f756e64732e0000604082015260600190565b6020808252601b908201527f626f756e74793a20746f6f206d616e7920726563697069656e74730000000000604082015260600190565b60208082526010908201527f56696e2072656164206f76657272756e00000000000000000000000000000000604082015260600190565b6020808252818101527f626f756e74793a206f7574706f696e747320636f756e74206d69736d61746368604082015260600190565b60208082526015908201527f626f756e74793a20626c6f636b20746f6f206f6c640000000000000000000000604082015260600190565b6020808252601e908201527f626f756e74793a20756e61636365707461626c6520726563697069656e740000604082015260600190565b6020808252600b908201527f23636f6d6d69746d656e74000000000000000000000000000000000000000000604082015260600190565b60208082526011908201527f6f7574706f696e74206d69736d61746368000000000000000000000000000000604082015260600190565b60208082526009908201527f216f7574706f696e740000000000000000000000000000000000000000000000604082015260600190565b60208082526011908201527f566f75742072656164206f76657272756e000000000000000000000000000000604082015260600190565b60208082526013908201527f536c696365206f7574206f6620626f756e647300000000000000000000000000604082015260600190565b6020808252601a908201527f626f756e74793a206e6f7420656e6f756768206f757470757473000000000000604082015260600190565b6020808252601b908201527f626f756e74793a206475706c696361746520726563697069656e740000000000604082015260600190565b60208082526006908201527f216d696e65720000000000000000000000000000000000000000000000000000604082015260600190565b60005b83811015614ad0578181015183820152602001614ab8565b83811115614adf576000848401525b5050505056fea2646970667358221220b7c87fcfc42307b2445f1cc3ffe95b29bf3264561af4ef6daf866169245bcbd664736f6c63430006020033",
  "source": "// SPDX-License-Identifier: MIT\npragma solidity >=0.6.2;\npragma experimental ABIEncoderV2;\n\n/** @title PoR */\n/** @author Zergity (https://endur.io) */\n\nimport {BytesLib} from \"./lib/bitcoin-spv/contracts/BytesLib.sol\";\nimport {BTCUtils} from \"./lib/bitcoin-spv/contracts/BTCUtils.sol\";\nimport {CheckBitcoinSigs} from \"./lib/bitcoin-spv/contracts/CheckBitcoinSigs.sol\";\nimport {ValidateSPV} from \"./lib/bitcoin-spv/contracts/ValidateSPV.sol\";\nimport \"./interface/IRefNet.sol\";\nimport \"./lib/CapMath.sol\";\nimport \"./DataStructure.sol\";\nimport \"./lib/time.sol\";\n\ninterface IERC20Events {\n    event Transfer(address indexed from, address indexed to, uint256 value);\n    event Approval(address indexed owner, address indexed spender, uint256 value);\n}\n\n/**\n * Proof of Reference\n *\n * @dev implemetation class can't have any state variable, all state is located in DataStructure\n */\ncontract PoR is DataStructure, IERC20Events {\n    uint constant SUBMITTING_TIME = 1 hours;\n    uint constant BOUNTY_TIME = 1 hours;\n    uint constant RECIPIENT_RATE = 32;\n\n    uint constant MAX_TARGET = 1<<240;\n\n    using BTCUtils for bytes;\n    using BTCUtils for uint256;\n    using BytesLib for bytes;\n\n    struct ParamClaim {\n        bytes32 blockHash;\n        bytes32 memoHash;\n        address payer;\n        bool    isPKH;\n        bool    skipCommission;\n        bytes32 pubX;\n        bytes32 pubY;\n        uint    amount;\n        uint    timestamp;\n    }\n\n    function claim(\n        ParamClaim calldata params\n    ) external {\n        require(!_submittable(params.timestamp), \"too soon\");\n\n        Reward storage reward = rewards[params.blockHash][params.memoHash];\n\n        bytes32 pubkey;\n        if (params.isPKH) {\n            pubkey = bytes32(_pkh(params.pubX, params.pubY));\n        } else {\n            pubkey = params.pubX;\n        }\n        require(reward.commitment == bytes28(keccak256(abi.encodePacked(params.payer, params.amount, params.timestamp, pubkey))), \"#commitment\");\n\n        address miner = CheckBitcoinSigs.accountFromPubkey(abi.encodePacked(params.pubX, params.pubY));\n        require(miner == msg.sender, \"!miner\");\n\n        IRefNet(address(this)).reward(miner, params.payer, params.amount, params.memoHash, params.blockHash, params.skipCommission);\n        delete rewards[params.blockHash][params.memoHash];\n    }\n\n    struct ParamSubmit {\n        // brand\n        address payer;\n\n        // block\n        bytes   header;\n        uint32  merkleIndex;\n        bytes   merkleProof;\n\n        // tx\n        uint32  version;\n        uint32  locktime;\n        bytes   vin;\n        bytes   vout;\n\n        // PoR\n        uint32  inputIndex;\n        uint32  memoLength;\n        uint32  pubkeyPos;\n    }\n\n    struct ParamOutpoint {\n        uint32  version;\n        uint32  locktime;\n        bytes   vin;\n        bytes   vout;\n\n        uint32  pkhPos;     // (optional) position of miner PKH in the outpoint raw data\n                            // (including the first 8-bytes amount for optimization)\n    }\n\n    struct ParamBounty {\n        // block\n        bytes   header;\n        uint32  merkleIndex;\n        bytes   merkleProof;\n\n        // tx\n        uint32  version;\n        uint32  locktime;\n        bytes   vin;\n        bytes   vout;\n    }\n\n    function submit(\n        ParamSubmit     calldata    params,\n        ParamOutpoint[] calldata    outpoint,\n        ParamBounty[]   calldata    bounty\n    ) external {\n        // block\n        uint blockHash = uint(params.header.hash256()).reverseUint256(); // always use BE for block hash\n        uint rewardRate;\n        bytes memory opret;\n\n        if (bounty.length > 0) {\n            require(bounty[0].vout.extractFirstOpReturn().length == 0, \"bounty: sampling recipient has OP_RET\");\n\n            uint inValue;\n            uint firstInputSize;\n\n            { // stack too deep\n            bytes32[] memory outpointHash;\n            uint[] memory outpointIdx;\n            (firstInputSize, outpointHash, outpointIdx) = params.vin.processBountyInputs();\n            require(outpointHash.length == outpoint.length, 'bounty: outpoints count mismatch');\n            for (uint i = 0; i < outpointHash.length; ++i) {\n                require (outpointHash[i] ==\n                    ValidateSPV.calculateTxId(\n                        outpoint[i].version,\n                        outpoint[i].vin,\n                        outpoint[i].vout,\n                        outpoint[i].locktime\n                    ), 'bounty: inputs mismatch');\n                inValue += outpoint[i].vout.extractOutputAtIndex(outpointIdx[i]).extractValue(); // unsafe\n            }\n\n            bytes32 recipient = ValidateSPV.calculateTxId(bounty[0].version, bounty[0].vin, bounty[0].vout, bounty[0].locktime);\n            require(uint(keccak256(abi.encodePacked(outpointHash[0], recipient))) % RECIPIENT_RATE == 0, \"bounty: unacceptable recipient\");\n            require(ValidateSPV.prove(\n                recipient,\n                bounty[0].header.extractMerkleRootLE().toBytes32(),\n                bounty[0].merkleProof,\n                bounty[0].merkleIndex\n            ), \"bounty: invalid merkle proof\");\n            }\n\n            (opret, rewardRate) = params.vout.processBountyOutputs(\n                params.vin.length,\n                keccak256(bounty[0].vout.extractOutputAtIndex(uint(-1)).extractScript()),\n                inValue,\n                firstInputSize,\n                blockHash);\n\n            rewardRate *= 2 * MAX_TARGET;   // overflowable: unexploitable\n        } else {\n            opret = params.vout.extractFirstOpReturn();\n            rewardRate = MAX_TARGET;\n        }\n\n        bytes32 pubkey;     // can be either 20-bytes pkh or 32-bytes pubkey x\n        { // stack too deep\n        // store the outpoint to claim the reward later\n        uint inputIndex = params.inputIndex;\n        bytes memory input = params.vin.extractInputAtIndex(inputIndex);\n\n        if (params.pubkeyPos > 0) {\n            // custom P2SH redeem script with manual compressed PubKey position\n            pubkey = input.slice(32+4+1+params.pubkeyPos+1, 32).toBytes32();\n        } else if (input.length >= 32+4+1+33+4 && input[input.length-1-33-4] == 0x21) {\n            // redeem script for P2PKH\n            pubkey = input.slice(input.length-33-4+1, 32).toBytes32();\n        } else if (input.keccak256Slice(32+4, 4) == keccak256(hex\"17160014\")) {\n            // redeem script for P2SH-P2WPKH\n            pubkey = input.slice(32+4+4, 20).toBytes32() & 0xFFFFFFFFFFFFFFFFFFFFFFFFFFFFFFFFFFFFFFFF000000000000000000000000;\n        } else {\n            // redeem script for P2WPKH\n            require(outpoint.length > 0, \"!outpoint\");\n            if (bounty.length == 0) {\n                bytes32 otxid = ValidateSPV.calculateTxId(outpoint[0].version, outpoint[0].vin, outpoint[0].vout, outpoint[0].locktime);\n                require(otxid == input.extractInputTxIdLE(), \"outpoint mismatch\");\n                inputIndex = 0;\n            }\n            uint oIdx = input.extractTxIndexLE().reverseEndianness().toUint32(0);\n            bytes memory output = outpoint[inputIndex].vout.extractOutputAtIndex(oIdx);\n            pubkey = _extractPKH(output, outpoint[inputIndex].pkhPos).toBytes32() & 0xFFFFFFFFFFFFFFFFFFFFFFFFFFFFFFFFFFFFFFFF000000000000000000000000;\n        }\n        }\n\n        bytes32 memoHash;\n\n        { // stack too deep\n        uint target = params.header.extractTarget();\n\n        if (bounty.length > 0) {\n            uint bountyTarget = bounty[0].header.extractTarget();\n            // Require that the header has sufficient work\n            require(uint(bounty[0].header.hash256()).reverseUint256() <= bountyTarget, \"bounty: insufficient work\");\n            // bounty reference block must have the same target as the mining block\n\n            // A single (BTC) retarget never changes the target by more than a factor of 4 either way to prevent large changes in difficulty.\n            // To support more re-targeting protocols and testnet, we limit to factor of 2 upward before triggering an expensive reward retarget.\n            bountyTarget /= target;\n            if (bountyTarget >= 2) { // bounty reference block target is too week\n                rewardRate /= bountyTarget;\n            }\n        }\n\n        uint multiplier;\n        (memoHash, multiplier) = _processMemo(opret, params.memoLength);\n        if (multiplier > 1) {\n            target /= multiplier;\n        }\n        // Require that the header has sufficient work\n        require(blockHash <= target, \"insufficient work\");\n        rewardRate /= target;\n        }\n\n        Reward storage reward = rewards[bytes32(blockHash)][memoHash];\n\n        // tx\n        { // stack too deep \n        bytes32 txid = ValidateSPV.calculateTxId(params.version, params.vin, params.vout, params.locktime);\n        require(ValidateSPV.prove(txid, params.header.extractMerkleRootLE().toBytes32(), params.merkleProof, params.merkleIndex), \"invalid merkle proof\");\n\n        uint32 rank = uint32(bytes4(keccak256(abi.encodePacked(blockHash, txid))));\n        if (reward.rank != 0) {\n            require(rank < reward.rank, \"taken\");\n        }\n        reward.rank = rank;\n        }\n\n        uint timestamp = params.header.extractTimestamp();\n        require(_submittable(timestamp), \"submitting time over\");\n        if (bounty.length > 0) {\n            require(timestamp - bounty[0].header.extractTimestamp() <= BOUNTY_TIME, \"bounty: block too old\");\n        }\n\n        address payer = params.payer;\n        uint amount = _getBrandReward(memoHash, payer, rewardRate);\n\n        reward.commitment = bytes28(keccak256(abi.encodePacked(payer, amount, timestamp, pubkey)));\n        emit Submit(bytes32(blockHash), memoHash, pubkey, payer, amount, timestamp);\n    }\n\n    function _processMemo(\n        bytes   memory  opret,\n        uint            memoLength\n    ) internal pure returns (bytes32 memoHash, uint multiplier) {\n        require(opret.length > 0, \"!OP_RET\");\n        if (memoLength == 0) {\n            return (keccak256(opret), 1);\n        }\n        require(opret.length >= memoLength, \"OOB: memo length\");\n        memoHash = opret.keccak256Slice(0, memoLength);\n        if (opret.length > memoLength + 2 &&\n            opret[memoLength]   == ' ' &&\n            opret[memoLength+1] == 'x'\n        ) {\n            multiplier = _readUint(opret, memoLength + 2);\n        }\n    }\n\n    function _getBrandReward(\n        bytes32 memoHash,\n        address payer,\n        uint    rewardRate\n    ) internal view returns (uint) {\n        if (memoHash == ENDURIO_MEMO_HASH) {\n            return rewardRate;\n        }\n        Brand storage brand = brands[memoHash][payer];\n        uint payRate = brand.payRate;   // TODO: is the expiration checked here?\n        require(payRate > 0, \"brand not active\");\n        return CapMath.mul(payRate, rewardRate) / ENDURIO_PAYRATE;\n    }\n\n    function _readUint(bytes memory b, uint start) internal pure returns (uint result) {\n        for (uint i = start; i < b.length; i++) {\n            uint c = uint(uint8(b[i]));\n            if (c < 48 || c > 57) {\n                break;\n            }\n            result = result * 10 + (c - 48);\n        }\n    }\n\n    function _extractPKH(\n        bytes   memory  output,\n        uint32          pkhIdx\n    ) internal pure returns (bytes memory) {\n        // the first 8 bytes is ussually for amount, so zero index makes no sense here\n        if (pkhIdx > 0) {\n            // pkh location is provided for saving gas\n            return output.slice(pkhIdx, 20);\n        }\n        // standard outpoint types: p2pkh, p2wpkh\n        bytes memory pkh = output.extractHash();\n        require(pkh.length == 20, \"unsupported PKH in outpoint\");   // TODO: remove this\n        return pkh;\n    }\n\n    /**\n     * testing whether the given timestamp is in the submitting time\n     */\n    function _submittable(uint timestamp) internal view returns (bool) {\n        return time.elapse(timestamp) < SUBMITTING_TIME;\n    }\n\n    // PKH from uncompressed, unprefixed 64-bytes pubic key\n    function _pkh(bytes32 pubX, bytes32 pubY) internal pure returns (bytes20 pkh) {\n        uint8 prefix = uint(pubY) & 1 == 1 ? 3 : 2;\n        bytes memory compressedPubkey = abi.encodePacked(prefix, pubX);\n        return ripemd160(abi.encodePacked(sha256(compressedPubkey)));\n    }\n}\n",
  "sourcePath": "/home/zergity/src/github.com/endurio/PoR/contracts/PoR.sol",
  "compiler": {
    "name": "solc",
    "version": "0.6.2+commit.bacdbe57.Emscripten.clang"
  },
  "schemaVersion": "3.2.4",
  "updatedAt": "2021-03-01T08:46:16.620Z",
  "networkType": "ethereum",
  "devdoc": {
    "details": "implemetation class can't have any state variable, all state is located in DataStructure",
    "methods": {}
  },
  "userdoc": {
    "methods": {},
    "notice": "Proof of Reference"
  }
}