{
  "contractName": "RefNetwork",
  "abi": [
    {
      "anonymous": false,
      "inputs": [
        {
          "indexed": true,
          "internalType": "bytes32",
          "name": "memoHash",
          "type": "bytes32"
        },
        {
          "indexed": true,
          "internalType": "address",
          "name": "payer",
          "type": "address"
        },
        {
          "indexed": false,
          "internalType": "bytes",
          "name": "memo",
          "type": "bytes"
        },
        {
          "indexed": false,
          "internalType": "uint256",
          "name": "payRate",
          "type": "uint256"
        },
        {
          "indexed": false,
          "internalType": "uint256",
          "name": "balance",
          "type": "uint256"
        },
        {
          "indexed": false,
          "internalType": "uint256",
          "name": "expiration",
          "type": "uint256"
        }
      ],
      "name": "Active",
      "type": "event"
    },
    {
      "anonymous": false,
      "inputs": [
        {
          "indexed": true,
          "internalType": "address",
          "name": "owner",
          "type": "address"
        },
        {
          "indexed": true,
          "internalType": "address",
          "name": "spender",
          "type": "address"
        },
        {
          "indexed": false,
          "internalType": "uint256",
          "name": "value",
          "type": "uint256"
        }
      ],
      "name": "Approval",
      "type": "event"
    },
    {
      "anonymous": false,
      "inputs": [
        {
          "indexed": true,
          "internalType": "bytes32",
          "name": "blockHash",
          "type": "bytes32"
        },
        {
          "indexed": true,
          "internalType": "bytes32",
          "name": "memoHash",
          "type": "bytes32"
        },
        {
          "indexed": true,
          "internalType": "address",
          "name": "miner",
          "type": "address"
        },
        {
          "indexed": false,
          "internalType": "address",
          "name": "payer",
          "type": "address"
        },
        {
          "indexed": false,
          "internalType": "uint256",
          "name": "value",
          "type": "uint256"
        }
      ],
      "name": "Claim",
      "type": "event"
    },
    {
      "anonymous": false,
      "inputs": [
        {
          "indexed": true,
          "internalType": "address",
          "name": "payer",
          "type": "address"
        },
        {
          "indexed": true,
          "internalType": "address",
          "name": "miner",
          "type": "address"
        },
        {
          "indexed": false,
          "internalType": "uint256",
          "name": "value",
          "type": "uint256"
        }
      ],
      "name": "CommissionLost",
      "type": "event"
    },
    {
      "anonymous": false,
      "inputs": [
        {
          "indexed": true,
          "internalType": "address",
          "name": "payer",
          "type": "address"
        },
        {
          "indexed": true,
          "internalType": "address",
          "name": "miner",
          "type": "address"
        },
        {
          "indexed": true,
          "internalType": "address",
          "name": "payee",
          "type": "address"
        },
        {
          "indexed": false,
          "internalType": "uint256",
          "name": "value",
          "type": "uint256"
        }
      ],
      "name": "CommissionPaid",
      "type": "event"
    },
    {
      "anonymous": false,
      "inputs": [
        {
          "indexed": true,
          "internalType": "address",
          "name": "payer",
          "type": "address"
        },
        {
          "indexed": true,
          "internalType": "address",
          "name": "miner",
          "type": "address"
        },
        {
          "indexed": false,
          "internalType": "uint256",
          "name": "value",
          "type": "uint256"
        }
      ],
      "name": "CommissionRoot",
      "type": "event"
    },
    {
      "anonymous": false,
      "inputs": [
        {
          "indexed": true,
          "internalType": "address",
          "name": "payer",
          "type": "address"
        },
        {
          "indexed": true,
          "internalType": "address",
          "name": "miner",
          "type": "address"
        },
        {
          "indexed": false,
          "internalType": "uint256",
          "name": "value",
          "type": "uint256"
        }
      ],
      "name": "CommissionSkip",
      "type": "event"
    },
    {
      "anonymous": false,
      "inputs": [
        {
          "indexed": true,
          "internalType": "bytes32",
          "name": "memoHash",
          "type": "bytes32"
        },
        {
          "indexed": true,
          "internalType": "address",
          "name": "payer",
          "type": "address"
        }
      ],
      "name": "Deactive",
      "type": "event"
    },
    {
      "anonymous": false,
      "inputs": [
        {
          "indexed": true,
          "internalType": "bytes32",
          "name": "key",
          "type": "bytes32"
        },
        {
          "indexed": false,
          "internalType": "uint256",
          "name": "value",
          "type": "uint256"
        }
      ],
      "name": "GlobalConfig",
      "type": "event"
    },
    {
      "anonymous": false,
      "inputs": [
        {
          "indexed": true,
          "internalType": "bytes32",
          "name": "key",
          "type": "bytes32"
        },
        {
          "indexed": false,
          "internalType": "address",
          "name": "value",
          "type": "address"
        }
      ],
      "name": "GlobalConfig",
      "type": "event"
    },
    {
      "anonymous": false,
      "inputs": [
        {
          "indexed": true,
          "internalType": "bytes32",
          "name": "blockHash",
          "type": "bytes32"
        },
        {
          "indexed": true,
          "internalType": "bytes32",
          "name": "memoHash",
          "type": "bytes32"
        },
        {
          "indexed": true,
          "internalType": "bytes32",
          "name": "pubkey",
          "type": "bytes32"
        },
        {
          "indexed": false,
          "internalType": "address",
          "name": "payer",
          "type": "address"
        },
        {
          "indexed": false,
          "internalType": "uint256",
          "name": "value",
          "type": "uint256"
        },
        {
          "indexed": false,
          "internalType": "uint256",
          "name": "timestamp",
          "type": "uint256"
        }
      ],
      "name": "Submit",
      "type": "event"
    },
    {
      "anonymous": false,
      "inputs": [
        {
          "indexed": true,
          "internalType": "address",
          "name": "from",
          "type": "address"
        },
        {
          "indexed": true,
          "internalType": "address",
          "name": "to",
          "type": "address"
        },
        {
          "indexed": false,
          "internalType": "uint256",
          "name": "value",
          "type": "uint256"
        }
      ],
      "name": "Transfer",
      "type": "event"
    },
    {
      "inputs": [
        {
          "internalType": "address",
          "name": "owner",
          "type": "address"
        },
        {
          "internalType": "address",
          "name": "spender",
          "type": "address"
        }
      ],
      "name": "allowance",
      "outputs": [
        {
          "internalType": "uint256",
          "name": "",
          "type": "uint256"
        }
      ],
      "stateMutability": "view",
      "type": "function",
      "constant": true
    },
    {
      "inputs": [
        {
          "internalType": "address",
          "name": "spender",
          "type": "address"
        },
        {
          "internalType": "uint256",
          "name": "amount",
          "type": "uint256"
        }
      ],
      "name": "approve",
      "outputs": [
        {
          "internalType": "bool",
          "name": "",
          "type": "bool"
        }
      ],
      "stateMutability": "nonpayable",
      "type": "function"
    },
    {
      "inputs": [
        {
          "internalType": "address",
          "name": "account",
          "type": "address"
        }
      ],
      "name": "balanceOf",
      "outputs": [
        {
          "internalType": "uint256",
          "name": "",
          "type": "uint256"
        }
      ],
      "stateMutability": "view",
      "type": "function",
      "constant": true
    },
    {
      "inputs": [],
      "name": "decimals",
      "outputs": [
        {
          "internalType": "uint8",
          "name": "",
          "type": "uint8"
        }
      ],
      "stateMutability": "pure",
      "type": "function",
      "constant": true
    },
    {
      "inputs": [
        {
          "internalType": "address",
          "name": "spender",
          "type": "address"
        },
        {
          "internalType": "uint256",
          "name": "subtractedValue",
          "type": "uint256"
        }
      ],
      "name": "decreaseAllowance",
      "outputs": [
        {
          "internalType": "bool",
          "name": "",
          "type": "bool"
        }
      ],
      "stateMutability": "nonpayable",
      "type": "function"
    },
    {
      "inputs": [
        {
          "internalType": "address",
          "name": "spender",
          "type": "address"
        },
        {
          "internalType": "uint256",
          "name": "addedValue",
          "type": "uint256"
        }
      ],
      "name": "increaseAllowance",
      "outputs": [
        {
          "internalType": "bool",
          "name": "",
          "type": "bool"
        }
      ],
      "stateMutability": "nonpayable",
      "type": "function"
    },
    {
      "inputs": [],
      "name": "name",
      "outputs": [
        {
          "internalType": "string",
          "name": "",
          "type": "string"
        }
      ],
      "stateMutability": "pure",
      "type": "function",
      "constant": true
    },
    {
      "inputs": [],
      "name": "symbol",
      "outputs": [
        {
          "internalType": "string",
          "name": "",
          "type": "string"
        }
      ],
      "stateMutability": "pure",
      "type": "function",
      "constant": true
    },
    {
      "inputs": [],
      "name": "totalSupply",
      "outputs": [
        {
          "internalType": "uint256",
          "name": "",
          "type": "uint256"
        }
      ],
      "stateMutability": "view",
      "type": "function",
      "constant": true
    },
    {
      "inputs": [
        {
          "internalType": "address",
          "name": "recipient",
          "type": "address"
        },
        {
          "internalType": "uint256",
          "name": "amount",
          "type": "uint256"
        }
      ],
      "name": "transfer",
      "outputs": [
        {
          "internalType": "bool",
          "name": "",
          "type": "bool"
        }
      ],
      "stateMutability": "nonpayable",
      "type": "function"
    },
    {
      "inputs": [
        {
          "internalType": "address",
          "name": "sender",
          "type": "address"
        },
        {
          "internalType": "address",
          "name": "recipient",
          "type": "address"
        },
        {
          "internalType": "uint256",
          "name": "amount",
          "type": "uint256"
        }
      ],
      "name": "transferFrom",
      "outputs": [
        {
          "internalType": "bool",
          "name": "",
          "type": "bool"
        }
      ],
      "stateMutability": "nonpayable",
      "type": "function"
    },
    {
      "stateMutability": "payable",
      "type": "receive",
      "payable": true
    },
    {
      "inputs": [
        {
          "internalType": "address",
          "name": "parent",
          "type": "address"
        }
      ],
      "name": "attach",
      "outputs": [],
      "stateMutability": "nonpayable",
      "type": "function"
    },
    {
      "inputs": [
        {
          "internalType": "int256",
          "name": "fund",
          "type": "int256"
        },
        {
          "internalType": "uint256",
          "name": "newRent",
          "type": "uint256"
        },
        {
          "internalType": "bool",
          "name": "escalate",
          "type": "bool"
        }
      ],
      "name": "update",
      "outputs": [
        {
          "internalType": "uint256",
          "name": "rent",
          "type": "uint256"
        },
        {
          "internalType": "uint256",
          "name": "expiration",
          "type": "uint256"
        },
        {
          "internalType": "uint256",
          "name": "fee",
          "type": "uint256"
        }
      ],
      "stateMutability": "nonpayable",
      "type": "function"
    },
    {
      "inputs": [
        {
          "internalType": "address",
          "name": "noder",
          "type": "address"
        }
      ],
      "name": "query",
      "outputs": [
        {
          "internalType": "address",
          "name": "parent",
          "type": "address"
        },
        {
          "internalType": "uint256",
          "name": "rent",
          "type": "uint256"
        },
        {
          "internalType": "uint256",
          "name": "expiration",
          "type": "uint256"
        },
        {
          "internalType": "uint256",
          "name": "balance",
          "type": "uint256"
        },
        {
          "internalType": "uint256",
          "name": "decayingRent",
          "type": "uint256"
        },
        {
          "internalType": "uint256",
          "name": "cooldownEnd",
          "type": "uint256"
        },
        {
          "internalType": "uint256",
          "name": "cutbackRate",
          "type": "uint256"
        },
        {
          "internalType": "address",
          "name": "cbtAddress",
          "type": "address"
        },
        {
          "internalType": "uint256",
          "name": "cbtRateDecimals",
          "type": "uint256"
        },
        {
          "internalType": "uint256",
          "name": "cbtRate",
          "type": "uint256"
        }
      ],
      "stateMutability": "view",
      "type": "function",
      "constant": true
    },
    {
      "inputs": [
        {
          "internalType": "address",
          "name": "token",
          "type": "address"
        },
        {
          "internalType": "uint256",
          "name": "rate",
          "type": "uint256"
        },
        {
          "internalType": "uint256",
          "name": "decimals",
          "type": "uint256"
        }
      ],
      "name": "setCutbackRate",
      "outputs": [],
      "stateMutability": "nonpayable",
      "type": "function"
    },
    {
      "inputs": [
        {
          "internalType": "address",
          "name": "miner",
          "type": "address"
        },
        {
          "internalType": "address",
          "name": "payer",
          "type": "address"
        },
        {
          "internalType": "uint256",
          "name": "amount",
          "type": "uint256"
        },
        {
          "internalType": "bytes32",
          "name": "memoHash",
          "type": "bytes32"
        },
        {
          "internalType": "bytes32",
          "name": "blockHash",
          "type": "bytes32"
        },
        {
          "internalType": "bool",
          "name": "skipCommission",
          "type": "bool"
        }
      ],
      "name": "reward",
      "outputs": [],
      "stateMutability": "nonpayable",
      "type": "function"
    }
  ],
  "bytecode": "0x6101406040526000608081905260a081905260c081905260e0819052631dcd65006101008190526103e86101205260018290556002919091556003805463ffffffff191690911763ffffffff166503e80000000017905534801561006257600080fd5b50612871806100726000396000f3fe6080604052600436106100f75760003560e01c80637a0ca1e21161008a578063d4fc9fc611610059578063d4fc9fc6146104bb578063dd62ed3e1461056c578063dffb35bb146105b4578063e5d9c0ad1461060057610163565b80637a0ca1e2146103da57806395d89b411461041a578063a457c2d71461042f578063a9059cbb1461047557610163565b806323b872dd116100c657806323b872dd146102d9578063313ce56714610329578063395093511461035457806370a082311461039a57610163565b806306fdde0314610168578063095ea7b3146101f257806309812fe21461024c57806318160ddd146102b257610163565b3661016357604080517f08c379a000000000000000000000000000000000000000000000000000000000815260206004820152600a60248201527f4e6f207468616e6b732100000000000000000000000000000000000000000000604482015290519081900360640190fd5b600080fd5b34801561017457600080fd5b5061017d610656565b6040805160208082528351818301528351919283929083019185019080838360005b838110156101b757818101518382015260200161019f565b50505050905090810190601f1680156101e45780820380516001836020036101000a031916815260200191505b509250505060405180910390f35b3480156101fe57600080fd5b506102386004803603604081101561021557600080fd5b5073ffffffffffffffffffffffffffffffffffffffff813516906020013561068d565b604080519115158252519081900360200190f35b34801561025857600080fd5b506102b0600480360360c081101561026f57600080fd5b5073ffffffffffffffffffffffffffffffffffffffff813581169160208101359091169060408101359060608101359060808101359060a0013515156106ab565b005b3480156102be57600080fd5b506102c7610933565b60408051918252519081900360200190f35b3480156102e557600080fd5b50610238600480360360608110156102fc57600080fd5b5073ffffffffffffffffffffffffffffffffffffffff813581169160208101359091169060400135610939565b34801561033557600080fd5b5061033e610a21565b6040805160ff9092168252519081900360200190f35b34801561036057600080fd5b506102386004803603604081101561037757600080fd5b5073ffffffffffffffffffffffffffffffffffffffff8135169060200135610a26565b3480156103a657600080fd5b506102c7600480360360208110156103bd57600080fd5b503573ffffffffffffffffffffffffffffffffffffffff16610a87565b3480156103e657600080fd5b506102b0600480360360208110156103fd57600080fd5b503573ffffffffffffffffffffffffffffffffffffffff16610ab3565b34801561042657600080fd5b5061017d610ba6565b34801561043b57600080fd5b506102386004803603604081101561045257600080fd5b5073ffffffffffffffffffffffffffffffffffffffff8135169060200135610bdd565b34801561048157600080fd5b506102386004803603604081101561049857600080fd5b5073ffffffffffffffffffffffffffffffffffffffff8135169060200135610c58565b3480156104c757600080fd5b506104fb600480360360208110156104de57600080fd5b503573ffffffffffffffffffffffffffffffffffffffff16610c6c565b6040805173ffffffffffffffffffffffffffffffffffffffff9b8c168152602081019a909a52898101989098526060890196909652608088019490945260a087019290925260c086015290941660e08401526101008301939093526101208201929092529051908190036101400190f35b34801561057857600080fd5b506102c76004803603604081101561058f57600080fd5b5073ffffffffffffffffffffffffffffffffffffffff81358116916020013516610dd5565b3480156105c057600080fd5b506102b0600480360360608110156105d757600080fd5b5073ffffffffffffffffffffffffffffffffffffffff8135169060208101359060400135610e0d565b34801561060c57600080fd5b506106386004803603606081101561062357600080fd5b50803590602081013590604001351515611107565b60408051938452602084019290925282820152519081900360600190f35b60408051808201909152600781527f456e647572696f00000000000000000000000000000000000000000000000000602082015290565b60006106a161069a611626565b848461162a565b5060015b92915050565b33301461071957604080517f08c379a000000000000000000000000000000000000000000000000000000000815260206004820152600960248201527f21696e7465726e616c0000000000000000000000000000000000000000000000604482015290519081900360640190fd5b60008061072885888a89611771565b915091508773ffffffffffffffffffffffffffffffffffffffff1685857fa83473f452c2e728fbc8f0ed40bcc8d70ffd114f8182d789cfcd78a8bb7099638a86604051808373ffffffffffffffffffffffffffffffffffffffff1673ffffffffffffffffffffffffffffffffffffffff1681526020018281526020019250505060405180910390a480156107bd57505061092b565b505060408051602080820186905281830185905282518083038401815260609092019092528051910120601f811661088657600254610816908590889073ffffffffffffffffffffffffffffffffffffffff1688611771565b50809550508673ffffffffffffffffffffffffffffffffffffffff168673ffffffffffffffffffffffffffffffffffffffff167f3683d5813a1cf71236c132e36a551159084f1ba49f4c495c943b68889aa6965a876040518082815260200191505060405180910390a35061092b565b81156108f7578673ffffffffffffffffffffffffffffffffffffffff168673ffffffffffffffffffffffffffffffffffffffff167fe08c63cc81fdd2e6f25de85755653c055c28340ab36103db78fd99403b4f663b876040518082815260200191505060405180910390a35061092b565b60035460009061091390879063ffffffff16633b9aca0061187b565b905080156109285761092885888a84866118c5565b50505b505050505050565b60095490565b6000610946848484611c90565b73ffffffffffffffffffffffffffffffffffffffff8416600090815260086020526040812081610974611626565b73ffffffffffffffffffffffffffffffffffffffff1673ffffffffffffffffffffffffffffffffffffffff1681526020019081526020016000205490507f80000000000000000000000000000000000000000000000000000000000000008114610a1457610a14856109e4611626565b610a0f8660405180606001604052806028815260200161273c6028913986919063ffffffff611e6316565b61162a565b60019150505b9392505050565b601290565b60006106a1610a33611626565b84610a0f8560086000610a44611626565b73ffffffffffffffffffffffffffffffffffffffff908116825260208083019390935260409182016000908120918c16815292529020549063ffffffff611f1416565b73ffffffffffffffffffffffffffffffffffffffff81166000908152600760205260409020545b919050565b336000908152600560205260409020610ad2908263ffffffff611f8816565b73ffffffffffffffffffffffffffffffffffffffff811615610ba35773ffffffffffffffffffffffffffffffffffffffff8116331415610b7357604080517f08c379a000000000000000000000000000000000000000000000000000000000815260206004820152601260248201527f63697263756c6172207265666572656e63650000000000000000000000000000604482015290519081900360640190fd5b73ffffffffffffffffffffffffffffffffffffffff90811660009081526005602052604090206001015416610ad2565b50565b60408051808201909152600381527f454e440000000000000000000000000000000000000000000000000000000000602082015290565b60006106a1610bea611626565b84610a0f856040518060600160405280602581526020016128176025913960086000610c14611626565b73ffffffffffffffffffffffffffffffffffffffff908116825260208083019390935260409182016000908120918d1681529252902054919063ffffffff611e6316565b60006106a1610c65611626565b8484611c90565b73ffffffffffffffffffffffffffffffffffffffff81811660009081526005602052604081206001810154815493169277ffffffffffffffffffffffffffffffffffffffffffffffff811692780100000000000000000000000000000000000000000000000090910467ffffffffffffffff1691819081908190819081908190610cf589611fd2565b8a0297508996508815610d24576000610d0d8a611fe5565b90508015610d2257610d1f8b82611ff8565b97505b505b60018101546002909101549a9c999b509799969895977401000000000000000000000000000000000000000080820467ffffffffffffffff16987c010000000000000000000000000000000000000000000000000000000090920463ffffffff169773ffffffffffffffffffffffffffffffffffffffff8316975090820460ff16955075010000000000000000000000000000000000000000009091046affffffffffffffffffffff169350915050565b73ffffffffffffffffffffffffffffffffffffffff918216600090815260086020908152604080832093909416825291909152205490565b33600090815260056020526040902073ffffffffffffffffffffffffffffffffffffffff841615611000576b0100000000000000000000008310610e9c576040517f08c379a000000000000000000000000000000000000000000000000000000000815260040180806020018281038252602381526020018061278a6023913960400191505060405180910390fd5b6101008210610ef6576040517f08c379a00000000000000000000000000000000000000000000000000000000081526004018080602001828103825260268152602001806127646026913960400191505060405180910390fd5b6001810180547bffffffffffffffffffffffffffffffffffffffffffffffffffffffff167f800000000000000000000000000000000000000000000000000000000000000017905560020180547fffffffffffffffffffffffff00000000000000000000000000000000000000001673ffffffffffffffffffffffffffffffffffffffff85161774ffffffffffffffffffffffffffffffffffffffffff1675010000000000000000000000000000000000000000006affffffffffffffffffffff851602177fffffffffffffffffffffff00ffffffffffffffffffffffffffffffffffffffff167401000000000000000000000000000000000000000060ff841602179055611102565b633b9aca0083111561107357604080517f08c379a000000000000000000000000000000000000000000000000000000000815260206004820152601f60248201527f6e6174697665206375746261636b207261746520657863656564732031653900604482015290519081900360640190fd5b60018101547c0100000000000000000000000000000000000000000000000000000000900463ffffffff16633b9aca00811180156110b357600060028401555b505060010180547bffffffffffffffffffffffffffffffffffffffffffffffffffffffff167c010000000000000000000000000000000000000000000000000000000063ffffffff8516021790555b505050565b600080600077ffffffffffffffffffffffffffffffffffffffffffffffff85111561119357604080517f08c379a000000000000000000000000000000000000000000000000000000000815260206004820152601660248201527f6e657752656e74206f766572666c6f7720756931393200000000000000000000604482015290519081900360640190fd5b336000908152600560205260408120805477ffffffffffffffffffffffffffffffffffffffffffffffff811695507801000000000000000000000000000000000000000000000000900467ffffffffffffffff16935090846111f485611fd2565b029050600088131561121d578761120b3382612064565b6112158282611f14565b915050611327565b60008812156112b6576000811161129557604080517f08c379a000000000000000000000000000000000000000000000000000000000815260206004820152600860248201527f2162616c616e6365000000000000000000000000000000000000000000000000604482015290519081900360640190fd5b6000889003808210156112a55750805b6112af33826121ae565b9003611327565b6000871161132757604080517f08c379a0000000000000000000000000000000000000000000000000000000008152602060048083019190915260248201527f6e6f6f7000000000000000000000000000000000000000000000000000000000604482015290519081900360640190fd5b86611330578496505b831561135857600061134185611fe5565b90508015611356576113538682611ff8565b95505b505b8487146114b257848711156114ae5761137685880362049d406122e1565b9250846002028711806113b6575060018201546113b49074010000000000000000000000000000000000000000900467ffffffffffffffff16612354565b155b15611435578561142757604080517f08c379a000000000000000000000000000000000000000000000000000000000815260206004820152600960248201527f21657363616c6174650000000000000000000000000000000000000000000000604482015290519081900360640190fd5b6114328360036122e1565b92505b61147581846040518060400160405280601581526020017f62616c616e6365203c2075706772616465206665650000000000000000000000815250611e63565b905061148362093a80612367565b8260010160146101000a81548167ffffffffffffffff021916908367ffffffffffffffff1602179055505b8694505b6000851161152157604080517f08c379a000000000000000000000000000000000000000000000000000000000815260206004820152600560248201527f2172656e74000000000000000000000000000000000000000000000000000000604482015290519081900360640190fd5b61153385828161152d57fe5b04612367565b935067ffffffffffffffff8411156115ac57604080517f08c379a000000000000000000000000000000000000000000000000000000000815260206004820152601860248201527f65787069726174696f6e206f766572666c6f7720756936340000000000000000604482015290519081900360640190fd5b5080547fffffffffffffffff00000000000000000000000000000000000000000000000077ffffffffffffffffffffffffffffffffffffffffffffffff918216780100000000000000000000000000000000000000000000000067ffffffffffffffff871602171690851617905591959094509092509050565b3390565b73ffffffffffffffffffffffffffffffffffffffff8316611696576040517f08c379a00000000000000000000000000000000000000000000000000000000081526004018080602001828103825260248152602001806127f36024913960400191505060405180910390fd5b73ffffffffffffffffffffffffffffffffffffffff8216611702576040517f08c379a00000000000000000000000000000000000000000000000000000000081526004018080602001828103825260228152602001806126d36022913960400191505060405180910390fd5b73ffffffffffffffffffffffffffffffffffffffff808416600081815260086020908152604080832094871680845294825291829020859055815185815291517f8c5be1e5ebec7d5bd14f71427d1e84f3dd0314c0f7b2291e5b200ac8c7c3b9259281900390910190a3505050565b60008073ffffffffffffffffffffffffffffffffffffffff85166117a45761179984846121ae565b508190506000611872565b600086815260046020908152604080832073ffffffffffffffffffffffffffffffffffffffff8916845290915290208054808510156117fd57815485900382556117ef308787611c90565b846000935093505050611872565b600088815260046020908152604080832073ffffffffffffffffffffffffffffffffffffffff8b1680855292528083208381556001018390555190918a917f6373af0b20b8b6317fe443404fc44c22aa42d730255c2b38b12c2c407408c3229190a361186a308783611c90565b925060019150505b94509492505050565b60008261188a57506000610a1a565b8383028484828161189757fe5b0414156118b0578281816118a757fe5b04915050610a1a565b838386816118ba57fe5b040295945050505050565b60035467ffffffffffffffff8216906000906119289064010000000090047bffffffffffffffffffffffffffffffffffffffffffffffffffffffff16611919611911600f86900b61237a565b600f0b61248b565b600f0b9063ffffffff6124c516565b9050845b73ffffffffffffffffffffffffffffffffffffffff811660009081526005602052604081209061195b82612591565b90508084101561196c575050611a1c565b73ffffffffffffffffffffffffffffffffffffffff83166119f6578773ffffffffffffffffffffffffffffffffffffffff168973ffffffffffffffffffffffffffffffffffffffff167ff17de432a048452c0e377ae0a1f59ab7c691be275227c4fb1bdcb501b709f7f1896040518082815260200191505060405180910390a35050505050611c89565b60019091015492039173ffffffffffffffffffffffffffffffffffffffff16905061192c565b611a2888888388611771565b50809550508073ffffffffffffffffffffffffffffffffffffffff168673ffffffffffffffffffffffffffffffffffffffff168873ffffffffffffffffffffffffffffffffffffffff167f05d2d3a413fd9d5f5e348a6fdb94fc88e19ed5ab5bf4642a1856f55a5ed24cd7886040518082815260200191505060405180910390a48573ffffffffffffffffffffffffffffffffffffffff168173ffffffffffffffffffffffffffffffffffffffff161415611ae557505050611c89565b73ffffffffffffffffffffffffffffffffffffffff8116600090815260056020526040902060018101547c0100000000000000000000000000000000000000000000000000000000900463ffffffff16633b9aca0081118015611c57576002830154611b97908990750100000000000000000000000000000000000000000081046affffffffffffffffffffff169074010000000000000000000000000000000000000000900460ff16600a0a61187b565b97508715611c52576002830154604080517f23b872dd00000000000000000000000000000000000000000000000000000000815273ffffffffffffffffffffffffffffffffffffffff87811660048301528c81166024830152604482018c9052915191909216916323b872dd9160648083019260209291908290030181600087803b158015611c2557600080fd5b505af1158015611c39573d6000803e3d6000fd5b505050506040513d6020811015611c4f57600080fd5b50505b611c82565b633fffffff82169150611c6f8883633b9aca0061187b565b97508715611c8257611c82848a8a611c90565b5050505050505b5050505050565b73ffffffffffffffffffffffffffffffffffffffff8316611cfc576040517f08c379a00000000000000000000000000000000000000000000000000000000081526004018080602001828103825260258152602001806127ce6025913960400191505060405180910390fd5b73ffffffffffffffffffffffffffffffffffffffff8216611d68576040517f08c379a000000000000000000000000000000000000000000000000000000000815260040180806020018281038252602381526020018061268e6023913960400191505060405180910390fd5b611db8816040518060600160405280602681526020016126f56026913973ffffffffffffffffffffffffffffffffffffffff8616600090815260076020526040902054919063ffffffff611e6316565b73ffffffffffffffffffffffffffffffffffffffff8085166000908152600760205260408082209390935590841681522054611dfa908263ffffffff611f1416565b73ffffffffffffffffffffffffffffffffffffffff80841660008181526007602090815260409182902094909455805185815290519193928716927fddf252ad1be2c89b69c2b068fc378daa952ba7f163c4a11628f55a4df523b3ef92918290030190a3505050565b60008184841115611f0c576040517f08c379a00000000000000000000000000000000000000000000000000000000081526004018080602001828103825283818151815260200191508051906020019080838360005b83811015611ed1578181015183820152602001611eb9565b50505050905090810190601f168015611efe5780820380516001836020036101000a031916815260200191505b509250505060405180910390fd5b505050900390565b600082820183811015610a1a57604080517f08c379a000000000000000000000000000000000000000000000000000000000815260206004820152601b60248201527f536166654d6174683a206164646974696f6e206f766572666c6f770000000000604482015290519081900360640190fd5b60019190910180547fffffffffffffffffffffffff00000000000000000000000000000000000000001673ffffffffffffffffffffffffffffffffffffffff909216919091179055565b60006106a582611fe06125f4565b6125f8565b60006106a5611ff26125f4565b836125f8565b600062093a8082049290921c91600061201a8462093a8085066212750061187b565b905061205c84826040518060400160405280601681526020017f6465636179696e672072656e74206f766572666c6f7700000000000000000000815250611e63565b949350505050565b73ffffffffffffffffffffffffffffffffffffffff82166120d0576040517f08c379a00000000000000000000000000000000000000000000000000000000081526004018080602001828103825260218152602001806127ad6021913960400191505060405180910390fd5b612120816040518060600160405280602281526020016126b16022913973ffffffffffffffffffffffffffffffffffffffff8516600090815260076020526040902054919063ffffffff611e6316565b73ffffffffffffffffffffffffffffffffffffffff8316600090815260076020526040902055600954612159908263ffffffff61260f16565b60095560408051828152905160009173ffffffffffffffffffffffffffffffffffffffff8516917fddf252ad1be2c89b69c2b068fc378daa952ba7f163c4a11628f55a4df523b3ef9181900360200190a35050565b73ffffffffffffffffffffffffffffffffffffffff821661223057604080517f08c379a000000000000000000000000000000000000000000000000000000000815260206004820152601f60248201527f45524332303a206d696e7420746f20746865207a65726f206164647265737300604482015290519081900360640190fd5b600954612243908263ffffffff611f1416565b60095573ffffffffffffffffffffffffffffffffffffffff821660009081526007602052604090205461227c908263ffffffff611f1416565b73ffffffffffffffffffffffffffffffffffffffff831660008181526007602090815260408083209490945583518581529351929391927fddf252ad1be2c89b69c2b068fc378daa952ba7f163c4a11628f55a4df523b3ef9281900390910190a35050565b6000826122f0575060006106a5565b828202828482816122fd57fe5b0414610a1a576040517f08c379a000000000000000000000000000000000000000000000000000000000815260040180806020018281038252602181526020018061271b6021913960400191505060405180910390fd5b600061235e6125f4565b90911115919050565b60006106a56123746125f4565b83612651565b60008082600f0b1361238b57600080fd5b6000600f83900b6801000000000000000081126123aa576040918201911d5b64010000000081126123be576020918201911d5b6201000081126123d0576010918201911d5b61010081126123e1576008918201911d5b601081126123f1576004918201911d5b60048112612401576002918201911d5b60028112612410576001820191505b7fffffffffffffffffffffffffffffffffffffffffffffffffffffffffffffffc0820160401b6000607f849003600f87900b8282121561244c57fe5b901b90506780000000000000005b60008113156124805790800260ff81901c8281029390930192607f011c9060011d61245a565b509095945050505050565b6000600f82900b7fffffffffffffffffffffffffffffffff8000000000000000000000000000000014156124be57600080fd5b5060000390565b6000816124d4575060006106a5565b600083600f0b12156124e557600080fd5b600f83900b6fffffffffffffffffffffffffffffffff8316810260401c90608084901c0277ffffffffffffffffffffffffffffffffffffffffffffffff811115612553577fffffffffffffffffffffffffffffffffffffffffffffffffffffffffffffffff925050506106a5565b60401b8119811115612589577fffffffffffffffffffffffffffffffffffffffffffffffffffffffffffffffff925050506106a5565b019392505050565b80546000907801000000000000000000000000000000000000000000000000900467ffffffffffffffff166125c581612354565b156125d4576000915050610aae565b50505477ffffffffffffffffffffffffffffffffffffffffffffffff1690565b4290565b6000818311612609575060006106a5565b50900390565b6000610a1a83836040518060400160405280601e81526020017f536166654d6174683a207375627472616374696f6e206f766572666c6f770000815250611e63565b60008282018381106126645790506106a5565b507fffffffffffffffffffffffffffffffffffffffffffffffffffffffffffffffff939250505056fe45524332303a207472616e7366657220746f20746865207a65726f206164647265737345524332303a206275726e20616d6f756e7420657863656564732062616c616e636545524332303a20617070726f766520746f20746865207a65726f206164647265737345524332303a207472616e7366657220616d6f756e7420657863656564732062616c616e6365536166654d6174683a206d756c7469706c69636174696f6e206f766572666c6f7745524332303a207472616e7366657220616d6f756e74206578636565647320616c6c6f77616e6365637573746f6d206375746261636b20646563696d616c73206578636565647320382062697473637573746f6d206375746261636b20726174652065786365656473203838206269747345524332303a206275726e2066726f6d20746865207a65726f206164647265737345524332303a207472616e736665722066726f6d20746865207a65726f206164647265737345524332303a20617070726f76652066726f6d20746865207a65726f206164647265737345524332303a2064656372656173656420616c6c6f77616e63652062656c6f77207a65726fa2646970667358221220ce2182d3093687d4a683e130d01b17f29c99afbafbcb304251d78fe51186dbf464736f6c63430006020033",
  "source": "// SPDX-License-Identifier: MIT\npragma solidity >=0.6.2;\n\n/** @title RefNetwork */\n/** @author Zergity (https://endur.io) */\n\n// solium-disable security/no-block-members\n\nimport \"@openzeppelin/contracts/math/SafeMath.sol\";\nimport \"./Token.sol\";\nimport \"./lib/CapMath.sol\";\nimport \"./DataStructure.sol\";\nimport \"./lib/abdk/ABDKMath64x64.sol\";\nimport \"./lib/time.sol\";\nimport \"./lib/util.sol\";\nimport \"./interface/Initializable.sol\";\nimport \"./interface/IRefNet.sol\";\n\n/**\n * Referral Network\n *\n * @dev implemetation class can't have any state variable, all state is located in DataStructure\n */\ncontract RefNetwork is DataStructure, Token, IRefNet {\n    using libnode for Node;\n    using ABDKMath64x64 for int128;\n\n    uint    constant MAX_UINT192        = (1<<192)-1;\n    uint    constant MAX_UINT64         = (1<<64)-1;\n\n    uint    constant ROOT_COM_RATE      = 32;       // root commission chance = 1/32\n    uint    constant RENT_EPOCH         = 1 weeks;\n\n    /**\n     * init a node, attach or re-attach to parent node\n     */\n    function attach(address parent) external {\n        nodes[msg.sender].attach(parent);\n\n        while (parent != address(0x0)) {\n            require(parent != msg.sender, \"circular reference\");\n            parent = nodes[parent].parent;\n        }\n    }\n\n    function update(int fund, uint newRent, bool escalate) external returns (uint rent, uint expiration, uint fee) {\n        require(newRent <= MAX_UINT192, \"newRent overflow ui192\");\n\n        Node storage node = nodes[msg.sender];\n        (rent, expiration) = (node.rent, node.expiration);      // SLOAD\n\n        uint balance = time.remain(expiration) * rent;\n        if (fund > 0) {\n            uint amount = uint(fund);\n            _burn(msg.sender, amount);\n            balance = SafeMath.add(balance, amount);\n        } else if (fund < 0) {\n            require(balance > 0, \"!balance\");\n            uint amount = uint(-fund);\n            if (balance < amount) {\n                // empty the node balance\n                amount = balance;\n            }\n            _mint(msg.sender, amount);\n            balance -= amount;   // safe\n        } else /* fund == 0 */ {\n            require(newRent > 0, \"noop\");\n        }\n\n        if (newRent == 0) {\n            newRent = rent; // rent unchanged\n        }\n\n        if (expiration > 0) {\n            // initialized\n            uint elapsed = time.elapse(expiration);\n            if (elapsed > 0) {\n                // expired and decaying\n                rent = _getDecayingRent(rent, elapsed);\n            }\n        }\n\n        if (newRent != rent) {\n            // rent changed\n            if (newRent > rent) {\n                // upgrade\n                fee = SafeMath.mul(newRent-rent, RENT_EPOCH/2); // safe\n                if (newRent > rent*2 || !time.reach(node.cooldownEnd)) {\n                    require(escalate, \"!escalate\");\n                    fee = SafeMath.mul(fee, 3);\n                }\n                balance = SafeMath.sub(balance, fee, \"balance < upgrade fee\");\n                node.cooldownEnd = uint64(time.next(RENT_EPOCH));   // schedule the next slow upgrade\n            }\n            rent = newRent;\n        }\n\n        require(rent > 0, \"!rent\");\n        expiration = time.next(balance / rent);\n        // discard posible remainder of balance % rent\n\n        require(expiration <= MAX_UINT64, \"expiration overflow ui64\");\n\n        (node.rent, node.expiration) = (uint192(rent), uint64(expiration));  // SSTORE\n    }\n\n    function query(address noder) external view returns (\n        address parent,\n        uint    rent,\n        uint    expiration,\n        uint    balance,\n        uint    decayingRent,\n        uint    cooldownEnd,\n        uint    cutbackRate,\n        address cbtAddress,\n        uint    cbtRateDecimals,\n        uint    cbtRate\n    ) {\n        Node storage node = nodes[noder];\n        parent = node.parent;\n        rent = node.rent;\n        expiration = node.expiration;\n        balance = rent * time.remain(expiration);\n        decayingRent = rent;\n        if (expiration > 0) {\n            // initialized\n            uint elapsed = time.elapse(expiration);\n            if (elapsed > 0) {\n                // expired and decaying\n                decayingRent = _getDecayingRent(rent, elapsed);    \n            }\n        }\n        cooldownEnd = node.cooldownEnd;\n        cutbackRate = node.cutbackRate;\n        cbtAddress = node.cbtAddress;\n        cbtRateDecimals = node.cbtRateDecimals;\n        cbtRate = node.cbtRate;\n    }\n\n    /// decayinRent = (rent/2**(elapsed/CD))*(1-elapsed%CD/CD/2)\n    function _getDecayingRent(uint rent, uint elapsed) internal pure returns (uint) {\n        // exponential decay over weeks\n        rent >>= elapsed/RENT_EPOCH;\n        // linear decay from 1 to 0.5 during the week\n        uint weekDecaying = CapMath.checkedScale(rent, elapsed%RENT_EPOCH, RENT_EPOCH*2);\n        return SafeMath.sub(rent, weekDecaying, \"decaying rent overflow\");\n    }\n\n    function setCutbackRate(\n        address token,\n        uint rate,\n        uint decimals\n    ) external {\n        Node storage node = nodes[msg.sender];\n        if (token != address(0x0)) {\n            require(rate < 1<<88, \"custom cutback rate exceeds 88 bits\");\n            require(decimals < 1<<8, \"custom cutback decimals exceeds 8 bits\");\n            node.cutbackRate = uint32(CUTBACK_RATE_CUSTOM);   // set the custom token flag\n            node.cbtAddress = token;\n            node.cbtRate = uint88(rate);\n            node.cbtRateDecimals = uint8(decimals);\n            return;\n        }\n        require(rate <= CUTBACK_RATE_UNIT, \"native cutback rate exceeds 1e9\");\n        uint cutbackRate = node.cutbackRate;\n        bool cbt = cutbackRate > CUTBACK_RATE_UNIT;  // use the highest bit for cbt flag\n        if (cbt) {  // clear the custom token\n            delete node.cbtAddress;\n            delete node.cbtRate;\n            delete node.cbtRateDecimals;\n        }\n        node.cutbackRate = uint32(rate);\n    }\n\n    function reward(\n        address miner,\n        address payer,\n        uint amount,\n        bytes32 memoHash,\n        bytes32 blockHash,\n        bool skipCommission\n    ) external override {\n        require(msg.sender == address(this), \"!internal\");  // must be called from other implemenetation\n\n        { // stack too deep\n        (uint rewarded, bool empty) = _payByBrand(memoHash, payer, miner, amount);\n        emit Claim(blockHash, memoHash, miner, payer, rewarded);\n        if (empty) {\n            return;  // brand has no more fund to pay for commission\n        }\n        }\n\n        uint uiSeed = uint(keccak256(abi.encodePacked(memoHash, blockHash)));\n\n        // there's always 1/32 chance that the raw commission will go to root\n        if (uiSeed % ROOT_COM_RATE == 0) {\n            // reuse amount for actual rewarded amount\n            (amount,) = _payByBrand(memoHash, payer, config.root, amount);\n            emit CommissionRoot(payer, miner, amount);\n            return;\n        }\n\n        if (skipCommission) {\n            emit CommissionSkip(payer, miner, amount);\n            return;\n        }\n\n        uint commission = CapMath.checkedScale(amount, config.comRate, COM_RATE_UNIT);\n        if (commission > 0) {\n            _commitCommission(memoHash, payer, miner, commission, uiSeed);\n        }\n    }\n\n    function _payByBrand(\n        bytes32 memoHash,\n        address payer,\n        address payee,\n        uint    amount\n    ) internal returns (uint, bool) {\n        if (payer == address(0x0)) {\n            _mint(payee, amount);\n            return (amount, false);\n        }\n\n        Brand storage brand = brands[memoHash][payer];\n        uint balance = brand.balance;\n        if (amount < balance) {\n            brand.balance -= amount; // safe\n            _transfer(address(this), payee, amount);\n            return (amount, false);\n        }\n        delete brands[memoHash][payer];\n        emit Deactive(memoHash, payer);\n        _transfer(address(this), payee, balance);\n        return (balance, true);    // no more balance to pay\n    }\n\n    function _commitCommission(\n        bytes32 memoHash,\n        address payer,\n        address miner,\n        uint    amount,\n        uint    seed\n    ) internal {\n        // TODO: lazy evaluation this\n        // seed = uint(keccak256(abi.encodePacked(seed))); // rehash\n        int128 x = int128(seed & MAX_UINT64);   // random 64x64 number in [0,1)\n        uint distance = x.log_2().neg().muluc(config.rentScale);\n\n        address noder = miner;\n        while(true) {\n            Node storage node = nodes[noder];\n            uint rent = node.getRent();\n            // short-circuit for zero rent\n            if (distance < rent) {\n                break;  // found it\n            }\n            if (noder == address(0x0)) {\n                // no more parent, commission lost and no cut back\n                emit CommissionLost(payer, miner, amount);\n                return;\n            }\n            distance -= rent;   // safe\n            noder = node.parent;\n        }\n\n        // reuse amount for actual rewarded amount\n        (amount,) = _payByBrand(memoHash, payer, noder, amount);\n        emit CommissionPaid(payer, miner, noder, amount);\n\n        // skip self cut-back\n        if (noder == miner) {\n            return;\n        }\n\n        Node storage node = nodes[noder];\n\n        uint cutbackRate = node.cutbackRate;\n        bool cbt = cutbackRate > CUTBACK_RATE_UNIT;\n        if (cbt) {\n            // reuse amount for token cutback amount\n            amount = CapMath.checkedScale(amount, node.cbtRate, 10**uint(node.cbtRateDecimals));\n            if (amount > 0) {\n                IERC20(node.cbtAddress).transferFrom(noder, miner, amount); // failure will revert the whole claim tx\n            }\n        } else {\n            cutbackRate &= CUTBACK_RATE_MASK;                   // rate only use the lowest 30 bits\n            // reuse amount for cutBack\n            amount = CapMath.checkedScale(amount, cutbackRate, CUTBACK_RATE_UNIT);\n            if (amount > 0) {\n                _transfer(noder, miner, amount);\n            }\n        }\n    }\n}\n\nlibrary libnode {\n    function attach(Node storage n, address parent) internal {\n        n.parent = parent;\n    }\n\n    // a node's weight\n    function getRent(Node storage n) internal view returns (uint) {\n        uint expiration = n.expiration;\n        if (time.reach(expiration)) {\n            return 0;\n        }\n        return n.rent;\n    }\n}\n",
  "sourcePath": "/home/zergity/src/github.com/endurio/PoR/contracts/RefNetwork.sol",
  "compiler": {
    "name": "solc",
    "version": "0.6.2+commit.bacdbe57.Emscripten.clang"
  },
  "schemaVersion": "3.2.4",
  "updatedAt": "2021-03-01T08:46:16.646Z",
  "networkType": "ethereum",
  "devdoc": {
    "details": "implemetation class can't have any state variable, all state is located in DataStructure",
    "methods": {
      "allowance(address,address)": {
        "details": "See {IERC20-allowance}."
      },
      "approve(address,uint256)": {
        "details": "See {IERC20-approve}.     * Requirements:     * - `spender` cannot be the zero address."
      },
      "balanceOf(address)": {
        "details": "See {IERC20-balanceOf}."
      },
      "decimals()": {
        "details": "Returns the number of decimals used to get its user representation. For example, if `decimals` equals `2`, a balance of `505` tokens should be displayed to a user as `5,05` (`505 / 10 ** 2`).     * Tokens usually opt for a value of 18, imitating the relationship between Ether and Wei. This is the value {ERC20} uses, unless {_setupDecimals} is called.     * NOTE: This information is only used for _display_ purposes: it in no way affects any of the arithmetic of the contract, including {IERC20-balanceOf} and {IERC20-transfer}."
      },
      "decreaseAllowance(address,uint256)": {
        "details": "Atomically decreases the allowance granted to `spender` by the caller.     * This is an alternative to {approve} that can be used as a mitigation for problems described in {IERC20-approve}.     * Emits an {Approval} event indicating the updated allowance.     * Requirements:     * - `spender` cannot be the zero address. - `spender` must have allowance for the caller of at least `subtractedValue`."
      },
      "increaseAllowance(address,uint256)": {
        "details": "Atomically increases the allowance granted to `spender` by the caller.     * This is an alternative to {approve} that can be used as a mitigation for problems described in {IERC20-approve}.     * Emits an {Approval} event indicating the updated allowance.     * Requirements:     * - `spender` cannot be the zero address."
      },
      "name()": {
        "details": "Returns the name of the token."
      },
      "symbol()": {
        "details": "Returns the symbol of the token, usually a shorter version of the name."
      },
      "totalSupply()": {
        "details": "See {IERC20-totalSupply}."
      },
      "transfer(address,uint256)": {
        "details": "See {IERC20-transfer}.     * Requirements:     * - `recipient` cannot be the zero address. - the caller must have a balance of at least `amount`."
      },
      "transferFrom(address,address,uint256)": {
        "details": "See {IERC20-transferFrom}.     * Emits an {Approval} event indicating the updated allowance. This is not required by the EIP. See the note at the beginning of {ERC20};     * Requirements: - `sender` and `recipient` cannot be the zero address. - `sender` must have a balance of at least `amount`. - the caller must have allowance for ``sender``'s tokens of at least `amount`."
      }
    }
  },
  "userdoc": {
    "methods": {
      "attach(address)": {
        "notice": "init a node, attach or re-attach to parent node"
      }
    },
    "notice": "Referral Network"
  }
}